:0400000000000000fc
:04000100072f5b78f2
:0400020000c909899f
:0400030007f8650194
:04000400076f492415
:04000500069ea49c13
:04000600003852adbf
:040007000767ae25b4
:0400080000000000f4
:04000900070ef840a6
:04000a00010ff3fef1
:04000b00001eec3ea9
:04000c0006ea8dfe75
:04000d0005f9863e2d
:04000e0007fa81fc70
:04000f0007097a3c27
:0400100000000000ec
:0400110006ffdff413
:04001200014630d2a1
:04001300004610c6cd
:04001400066e7528d7
:04001500056e551c03
:0400160007b4a5fa8c
:0400170006b485eeb8
:0400180000000000e4
:0400190007042dcdde
:04001a0001665e021b
:04001b00006a8bcf1d
:04001c00060553265c
:04001d00050980f35e
:04001e00076bb12893
:04001f00066fdef595
:0400200000000000dc
:04002100071c9e46d4
:04002200016c607c91
:040023000088fec291
:0400240005b93bf8e7
:0400250004d5da3ee6
:0400260007259c749a
:0400270006423aba99
:0400280000000000d4
:0400290007486eef27
:04002a000155c45860
:04002b00009e3347b9
:04002c0005935c6874
:04002d0004dbcb57ce
:04002e0006e920c0ff
:04002f0006318faf58
:0400300000000000cc
:040031000785582eb9
:040032000122063a67
:0400330000a75e685c
:04003400059b5b3c91
:040035000520b36a85
:0400360006bd61762c
:040037000642b9a420
:0400380000000000c4
:0400390007cfa3ed5d
:04003a0000d2c057d9
:04003b0000a2644477
:04003c0005d6d2e033
:04003d0005a676cdd1
:04003e0006a9933745
:04003f0006793724e3
:0400400000000000bc
:0400410000225f91a9
:04004200006bb3c3d9
:04004300008e1354c4
:040044000648d8b6dc
:04004500066b3847c7
:0400460006b48c79f7
:0400470006d6ec0ae3
:0400480000000000b4
:040049000077a7ade8
:04004a0007f2adbb51
:04004b00006a55688a
:04004c0006f1b09c6d
:04004d00076958499e
:04004e0006e45e570f
:04004f00075c060440
:00000001FF
