:0400000000000000fc
:0400010000000000fb
:0400020000000000fa
:0400030000000000f9
:0400040000000000f8
:0400050000000000f7
:0400060000000000f6
:0400070000000000f5
:0400080000000000f4
:0400090000000000f3
:04000a0000000000f2
:04000b0000000000f1
:04000c0000000000f0
:04000d0000000000ef
:04000e0000000000ee
:04000f0000000000ed
:0400100000000000ec
:0400110000000000eb
:0400120000000000ea
:0400130000000000e9
:0400140000000000e8
:0400150000000000e7
:0400160000000000e6
:0400170000000000e5
:0400180000000000e4
:0400190000000000e3
:04001a00000001d809
:04001b00000003a539
:04001c0000000000e0
:04001d000ffff1a13f
:04001e000fffd3e815
:04001f000fffad1210
:040020000fff910c31
:040021000fffa0cf5e
:0400220000000000da
:040023000000bfb664
:040024000001c9b757
:040025000002cdd632
:04002600000344345b
:04002700000281c989
:040028000fffd48171
:040029000ffa7ca3ab
:04002a000ff0e09c57
:04002b000fd8f27583
:04002c00009cdab2a8
:04002d00000c8fba7a
:04002e000fff514a25
:04002f000ffb048b34
:040030000ffa4784f8
:040031000ffb5bf373
:040032000ffd27aee9
:040033000ffee4d9ff
:040034000000224c5a
:040035000000bfc543
:040036000000d8a648
:040037000000a48c95
:0400380000005a2644
:0400390000001d772f
:04003a000ffffbd5e4
:04003b000ffff1dbe7
:04003c000ffff4f2cc
:04003d000ffffb2e88
:04003e000fffff1b96
:04003f0000000000bd
:0400400000000000bc
:0400410000000000bb
:0400420000000000ba
:0400430000000000b9
:0400440000000000b8
:0400450000000000b7
:0400460000000000b6
:0400470000000000b5
:0400480000000000b4
:0400490000000000b3
:04004a0000000000b2
:04004b0000000000b1
:04004c0000000000b0
:04004d0000000000af
:04004e0000000000ae
:04004f0000000000ad
:0400500000000000ac
:0400510000000000ab
:0400520000000000aa
:0400530000000000a9
:0400540000000000a8
:0400550000000000a7
:0400560000000000a6
:0400570000000000a5
:0400580000000000a4
:0400590000000000a3
:04005a000000016041
:04005b00000001bce4
:04005c000ffffc1482
:04005d000fffeb683e
:04005e000fffcf734e
:04005f000fffb1f4ea
:040060000fffa935b0
:040061000fffd3d3e7
:0400620000004b76d9
:04006300000110d7b1
:040064000001f8a1fe
:040065000002a3955d
:04006600000289e328
:04006700000118c5b7
:040068000ffdd3bef7
:040069000ff85447f1
:04006a000fefae697d
:04006b000fdd19d1bb
:04006c0000ab3502ae
:04006d0000056d22fb
:04006e000ffb34bc94
:04006f000ff8e89806
:040070000ff996d816
:040071000ffb8fa84a
:040072000ffdc6e5d3
:040073000fff9329bf
:040074000000a8e000
:0400750000010bcead
:040076000000f12a6b
:0400770000009ccd1c
:04007800000045ea55
:0400790000000a4732
:04007a000fffef7411
:04007b000fffec4542
:04007c000ffff389f6
:04007d000ffffb472f
:04007e000fffff422f
:04007f00000000007d
:04008000000000007c
:04008100000000007b
:04008200000000007a
:040083000000000079
:040084000000000078
:040085000000000077
:040086000000000076
:040087000000000075
:040088000000000074
:040089000000000073
:04008a000000000072
:04008b000000000071
:04008c000000000070
:04008d00000000006f
:04008e00000000006e
:04008f00000000006d
:04009000000000006c
:04009100000000006b
:04009200000000006a
:040093000000000069
:040094000000000068
:040095000000000067
:040096000000000066
:040097000000000065
:040098000000000064
:040099000000000063
:04009a00000000dc86
:04009b000000000061
:04009c000ffff85ffb
:04009d000fffe73436
:04009e000fffcf255c
:04009f000fffbcf1a2
:0400a0000fffc76f18
:0400a10000000887cc
:0400a20000008e6e5e
:0400a3000001492de2
:0400a4000001fd1842
:0400a500000243ba58
:0400a6000001a0664f
:0400a7000fffa43370
:0400a8000ffc1173c5
:0400a9000ff6e0c9a5
:0400aa000fefdbfa7f
:0400ab000fe38426b5
:0400ac0000b5303b30
:0400ad000ffd23b967
:0400ae000ff74817e9
:0400af000ff74fc92f
:0400b0000ff969bc1f
:0400b1000ffc242fed
:0400b2000ffe9ab3f0
:0400b3000000500eeb
:0400b400000125a979
:0400b500000143f40f
:0400b6000000f64a06
:0400b7000000878836
:0400b80000002ae733
:0400b9000ffff54df3
:0400ba000fffe3d081
:0400bb000fffe80744
:0400bc000ffff31a25
:0400bd000ffffbd264
:0400be00000000003e
:0400bf00000000003d
:0400c000000000003c
:0400c100000000003b
:0400c200000000003a
:0400c3000000000039
:0400c4000000000038
:0400c5000000000037
:0400c6000000000036
:0400c7000000000035
:0400c8000000000034
:0400c9000000000033
:0400ca000000000032
:0400cb000000000031
:0400cc000000000030
:0400cd00000000002f
:0400ce00000000002e
:0400cf00000000002d
:0400d000000000002c
:0400d100000000002b
:0400d200000000002a
:0400d3000000000029
:0400d4000000000028
:0400d5000000000027
:0400d6000000000026
:0400d7000000000025
:0400d8000000000024
:0400d9000000000023
:0400da000000000022
:0400db000ffffe2de8
:0400dc000ffff58b92
:0400dd000fffe541eb
:0400de000fffd2d06e
:0400df000fffcce063
:0400e0000fffe9061f
:0400e10000003a944d
:0400e2000000c384d3
:0400e300000164f1c3
:0400e4000001d8122d
:0400e5000001b7aeb1
:0400e60000009c1f5b
:0400e7000ffe42a323
:0400e8000ffaafea72
:0400e9000ff638bc1a
:0400ea000ff152437d
:0400eb000feb7c9308
:0400ec0000ba4e45c3
:0400ed000ff4453196
:0400ee000ff3e1e645
:0400ef000ff6619017
:0400f0000ff9c876c6
:0400f1000ffd102ac5
:0400f2000fff92ff6b
:0400f30000010c28d4
:0400f40000018ddc9e
:0400f500000162d1d3
:0400f6000000e6e43c
:0400f700000066029d
:0400f80000000b1cdd
:0400f9000fffe03dd8
:0400fa000fffd9f427
:0400fb000fffe59579
:0400fc000ffff3c33c
:0400fd000ffffccd28
:0400fe0000000000fe
:0400ff0000000000fd
:0401000000000000fb
:0401010000000000fa
:0401020000000000f9
:0401030000000000f8
:0401040000000000f7
:0401050000000000f6
:0401060000000000f5
:0401070000000000f4
:0401080000000000f3
:0401090000000000f2
:04010a0000000000f1
:04010b0000000000f0
:04010c0000000000ef
:04010d0000000000ee
:04010e0000000000ed
:04010f0000000000ec
:0401100000000000eb
:0401110000000000ea
:0401120000000000e9
:0401130000000000e8
:0401140000000000e7
:0401150000000000e6
:0401160000000000e5
:0401170000000000e4
:0401180000000000e3
:0401190000000000e2
:04011a0000000000e1
:04011b000ffffccd09
:04011c000ffff3c31b
:04011d000fffe59556
:04011e000fffd9f402
:04011f000fffe03db1
:0401200000000b1cb4
:040121000000660272
:040122000000e6e40f
:04012300000162d1a4
:0401240000018ddc6d
:0401250000010c28a1
:040126000fff92ff36
:040127000ffd102a8e
:040128000ff9c8768d
:040129000ff66190dc
:04012a000ff3e1e608
:04012b000ff4453157
:04012c0000ba4e4582
:04012d000feb7c93c5
:04012e000ff1524338
:04012f000ff638bcd3
:040130000ffaafea29
:040131000ffe42a3d8
:0401320000009c1f0e
:040133000001b7ae62
:040134000001d812dc
:04013500000164f170
:040136000000c3847e
:0401370000003a94f6
:040138000fffe906c6
:040139000fffcce008
:04013a000fffd2d011
:04013b000fffe5418c
:04013c000ffff58b31
:04013d000ffffe2d85
:04013e0000000000bd
:04013f0000000000bc
:0401400000000000bb
:0401410000000000ba
:0401420000000000b9
:0401430000000000b8
:0401440000000000b7
:0401450000000000b6
:0401460000000000b5
:0401470000000000b4
:0401480000000000b3
:0401490000000000b2
:04014a0000000000b1
:04014b0000000000b0
:04014c0000000000af
:04014d0000000000ae
:04014e0000000000ad
:04014f0000000000ac
:0401500000000000ab
:0401510000000000aa
:0401520000000000a9
:0401530000000000a8
:0401540000000000a7
:0401550000000000a6
:0401560000000000a5
:0401570000000000a4
:0401580000000000a3
:0401590000000000a2
:04015a0000000000a1
:04015b000ffffbd2c5
:04015c000ffff31a84
:04015d000fffe807a1
:04015e000fffe3d0dc
:04015f000ffff54d4c
:0401600000002ae78a
:04016100000087888b
:040162000000f64a59
:04016300000143f460
:04016400000125a9c8
:040165000000500e38
:040166000ffe9ab33b
:040167000ffc242f36
:040168000ff969bc66
:040169000ff74fc974
:04016a000ff748172c
:04016b000ffd23b9a8
:04016c0000b5303b6f
:04016d000fe38426f2
:04016e000fefdbfaba
:04016f000ff6e0c9de
:040170000ffc1173fc
:040171000fffa433a5
:040172000001a06682
:04017300000243ba89
:040174000001fd1871
:040175000001492d0f
:0401760000008e6e89
:0401770000000887f5
:040178000fffc76f3f
:040179000fffbcf1c7
:04017a000fffcf257f
:04017b000fffe73457
:04017c000ffff85f1a
:04017d00000000007e
:04017e00000000dca1
:04017f00000000007c
:04018000000000007b
:04018100000000007a
:040182000000000079
:040183000000000078
:040184000000000077
:040185000000000076
:040186000000000075
:040187000000000074
:040188000000000073
:040189000000000072
:04018a000000000071
:04018b000000000070
:04018c00000000006f
:04018d00000000006e
:04018e00000000006d
:04018f00000000006c
:04019000000000006b
:04019100000000006a
:040192000000000069
:040193000000000068
:040194000000000067
:040195000000000066
:040196000000000065
:040197000000000064
:040198000000000063
:040199000000000062
:04019a000fffff4212
:04019b000ffffb4710
:04019c000ffff389d5
:04019d000fffec451f
:04019e000fffef74ec
:04019f0000000a470b
:0401a000000045ea2c
:0401a10000009ccdf1
:0401a2000000f12a3e
:0401a30000010bce7e
:0401a4000000a8e0cf
:0401a5000fff93298c
:0401a6000ffdc6e59e
:0401a7000ffb8fa813
:0401a8000ff996d8dd
:0401a9000ff8e898cb
:0401aa000ffb34bc57
:0401ab0000056d22bc
:0401ac0000ab35026d
:0401ad000fdd19d178
:0401ae000fefae6938
:0401af000ff85447aa
:0401b0000ffdd3beae
:0401b100000118c56c
:0401b200000289e3db
:0401b3000002a3950e
:0401b4000001f8a1ad
:0401b500000110d75e
:0401b60000004b7684
:0401b7000fffd3d390
:0401b8000fffa93557
:0401b9000fffb1f48f
:0401ba000fffcf73f1
:0401bb000fffeb68df
:0401bc000ffffc1421
:0401bd00000001bc81
:0401be0000000160dc
:0401bf00000000003c
:0401c000000000003b
:0401c100000000003a
:0401c2000000000039
:0401c3000000000038
:0401c4000000000037
:0401c5000000000036
:0401c6000000000035
:0401c7000000000034
:0401c8000000000033
:0401c9000000000032
:0401ca000000000031
:0401cb000000000030
:0401cc00000000002f
:0401cd00000000002e
:0401ce00000000002d
:0401cf00000000002c
:0401d000000000002b
:0401d100000000002a
:0401d2000000000029
:0401d3000000000028
:0401d4000000000027
:0401d5000000000026
:0401d6000000000025
:0401d7000000000024
:0401d8000000000023
:0401d9000000000022
:0401da000fffff1bf9
:0401db000ffffb2ee9
:0401dc000ffff4f22b
:0401dd000ffff1db44
:0401de000ffffbd53f
:0401df0000001d7788
:0401e00000005a269b
:0401e1000000a48cea
:0401e2000000d8a69b
:0401e3000000bfc594
:0401e4000000224ca9
:0401e5000ffee4d94c
:0401e6000ffd27ae34
:0401e7000ffb5bf3bc
:0401e8000ffa47843f
:0401e9000ffb048b79
:0401ea000fff514a68
:0401eb00000c8fbabb
:0401ec00009cdab2e7
:0401ed000fd8f275c0
:0401ee000ff0e09c92
:0401ef000ffa7ca3e4
:0401f0000fffd481a8
:0401f100000281c9be
:0401f200000344348e
:0401f3000002cdd663
:0401f4000001c9b786
:0401f5000000bfb691
:0401f6000000000005
:0401f7000fffa0cf87
:0401f8000fff910c58
:0401f9000fffad1235
:0401fa000fffd3e838
:0401fb000ffff1a160
:0401fc0000000000ff
:0401fd00000003a556
:0401fe00000001d824
:0401ff0000000000fc
:0402000000000000fa
:0402010000000000f9
:0402020000000000f8
:0402030000000000f7
:0402040000000000f6
:0402050000000000f5
:0402060000000000f4
:0402070000000000f3
:0402080000000000f2
:0402090000000000f1
:04020a0000000000f0
:04020b0000000000ef
:04020c0000000000ee
:04020d0000000000ed
:04020e0000000000ec
:04020f0000000000eb
:0402100000000000ea
:0402110000000000e9
:0402120000000000e8
:0402130000000000e7
:0402140000000000e6
:0402150000000000e5
:0402160000000000e4
:0402170000000000e3
:0402180000000000e2
:0402190000000000e1
:04021a000fffff0fc4
:04021b000ffffb7c5a
:04021c000ffff726b3
:04021d000ffff83f98
:04021e00000007e9ec
:04021f0000002d644a
:040220000000663d37
:0402210000009ea893
:040222000000af6bbe
:04022300000066aec3
:040224000fff9d2b00
:040225000ffe52d89e
:040226000ffcc86b96
:040227000ffb8a46f9
:040228000ffb69243b
:040229000ffd73331f
:04022a00000347bfc7
:04022b0000121b039f
:04022c00008ad5036c
:04022d000fd7ad8eac
:04022e000ff36e124a
:04022f000ffd33503c
:040230000001eb0cd2
:040231000003c0ab5b
:040232000003be4bbc
:040233000002bd47c1
:04023400000172ef64
:0402350000005bc5a5
:040236000fffb15da8
:040237000fff73dc66
:040238000fff813ff4
:040239000fffaefe07
:04023a000fffdc5a7c
:04023b000ffff97741
:04023c0000000504b5
:04023d000000056b4d
:04023e000000023684
:04023f0000000000bb
:0402400000000000ba
:0402410000000000b9
:0402420000000000b8
:0402430000000000b7
:0402440000000000b6
:0402450000000000b5
:0402460000000000b4
:0402470000000000b3
:0402480000000000b2
:0402490000000000b1
:04024a0000000000b0
:04024b0000000000af
:04024c0000000000ae
:04024d0000000000ad
:04024e0000000000ac
:04024f0000000000ab
:0402500000000000aa
:0402510000000000a9
:0402520000000000a8
:0402530000000000a7
:0402540000000000a6
:0402550000000000a5
:0402560000000000a4
:0402570000000000a3
:0402580000000000a2
:0402590000000000a1
:04025a000fffff1b78
:04025b000ffffc2075
:04025c000ffff9e6b1
:04025d000ffffee1b0
:04025e00000012b9d1
:04025f00000038e87b
:040260000000698aa7
:0402610000008c1fee
:0402620000007969b6
:040263000000083758
:040264000fff24461e
:040265000ffde8277a
:040266000ffcaeeaf1
:040267000ffc13e194
:040268000ffce09314
:040269000fffff4f35
:04026a000006c9556c
:04026b000015c4f9bd
:04026c00007602c94d
:04026d000fd9c94f8d
:04026e000ff73590c1
:04026f0000004449fe
:040270000003eb6a32
:040271000004b9616b
:040272000003ebefab
:04027300000271789c
:040274000000fa4943
:040275000fffecc9c2
:040276000fff66cd43
:040277000fff50fe27
:040278000fff7b7f7a
:040279000fffb7dede
:04027a000fffe84545
:04027b000000025429
:04027c0000000987ee
:04027d00000006e196
:04027e000000026c0e
:04027f00000000007b
:00000001FF
