:03000000000000fd
:03000100000000fc
:03000200000000fb
:03000300000000fa
:03000400000048b1
:030005003fffa218
:030006003ffb6e4f
:030007000004b63c
:03000800001429b8
:030009003fe6705f
:03000a003fc531be
:03000b000066a6e6
:03000c0000aaef58
:03000d003c4c6404
:03000e00011dc011
:03000f003f293353
:030010003fe119b4
:030011000042a505
:0300120000026782
:030013003fec7f40
:03001400000139af
:030015000003a63f
:030016003fffa306
:030017003fffe1c7
:03001800000000e5
:03001900000000e4
:03001a00000000e3
:03001b00000000e2
:03001c000000449d
:03001d00000016ca
:03001e003ffb4461
:03001f0000019845
:0300200000165473
:030021003ff1a00c
:030022003fb9d310
:030023000046bfd5
:0300240000df17e3
:030025003d3e0a53
:0300260001c46fa3
:030027003f45b2a0
:030028003fc100d5
:03002900003d9afd
:03002a00000cf2d5
:03002b003fecd5d2
:03002c003ffe9400
:03002d000003d1fc
:03002e00000000cf
:03002f003fffdcb4
:03003000000000cd
:03003100000000cc
:03003200000000cb
:03003300000000ca
:0300340000003c8d
:0300350000008246
:030036003ffb7c11
:030037003ffe7217
:030038000016aa05
:030039003ffdb1d7
:03003a003fb44f81
:03003b000021faa7
:03003c0000ffdce6
:03003d003e4df243
:03003e0002510468
:03003f003f724ebf
:030040003fa54594
:0300410000336c1d
:030042000016b1f4
:030043003feebfce
:030044003ffbf689
:030045000003ae07
:030046000000496e
:030047003fffd99f
:03004800000000b5
:03004900000000b4
:03004a00000000b3
:03004b00000000b2
:03004c0000002f82
:03004d000000dfd1
:03004e003ffc0d67
:03004f003ffb84f0
:0300500000152f69
:030051000009a8fb
:030052003fb4f5c3
:030053003ffb610f
:03005400010b4954
:030055003f65966e
:0300560002b637b8
:030057003fabe0dc
:030058003f90488e
:030059000024cfb1
:03005a00001ed4b1
:03005b003ff22051
:03005c003ff998d1
:03005d0000033b62
:03005e0000009e01
:03005f003fffda86
:030060000000009d
:030061000000009c
:030062000000009b
:030063000000009a
:0300640000002079
:0300650000012572
:030066003ffcea72
:030067003ff90955
:0300680000120f74
:03006900001491ef
:03006a003fbb9306
:03006b003fd61469
:03006c000101256a
:03006d00006fea37
:03006e0002e8eeb7
:03006f003fee1d44
:030070003f83e8e3
:030071000012db9f
:030072000024a6c1
:030073003ff6bd98
:030074003ff7ada6
:0300750000027f07
:030076000000eb9c
:030077003fffdf69
:0300780000000085
:0300790000000084
:03007a0000000083
:03007b0000000082
:03007c0000000081
:03007d000001502f
:03007e003ffdfd46
:03007f003ff73018
:03008000000d94dc
:03008100001d94cb
:030082003fc77ff6
:030083003fb50185
:0300840000e2edaa
:03008500015a9c81
:0300860002e13460
:030087000033e063
:030088003f815b5a
:030089003ffef245
:03008a0000279fad
:03008b003ffc3cfb
:03008c003ff660dc
:03008d00000187e8
:03008e0000012846
:03008f003fffe749
:030090000000006d
:030091000000006c
:030092000000006b
:030093000000006a
:0300940000000069
:0300950000015f08
:030096003fff2efb
:030097003ff61819
:030098000008233a
:030099000024053b
:03009a003fd7a7a6
:03009b003f9ab2d7
:03009c0000b3a608
:03009d0002170e39
:03009e00029b0db5
:03009f0000779651
:0300a0003f891481
:0300a1003feaaa89
:0300a20000276fc5
:0300a30000023127
:0300a4003ff5d451
:0300a500000065f3
:0300a60000015006
:0300a70000000056
:0300a80000000055
:0300a90000000054
:0300aa0000000053
:0300ab0000000052
:0300ac0000000051
:0300ad00000150ff
:0300ae00000065ea
:0300af003ff5d446
:0300b0000002311a
:0300b10000276fb6
:0300b2003feaaa78
:0300b3003f89146e
:0300b4000077963c
:0300b500029b0d9e
:0300b60002170e20
:0300b70000b3a6ed
:0300b8003f9ab2ba
:0300b9003fd7a787
:0300ba000024051a
:0300bb0000082317
:0300bc003ff618f4
:0300bd003fff2ed4
:0300be0000015fdf
:0300bf000000003e
:0300c0000000003d
:0300c1000000003c
:0300c2000000003b
:0300c3000000003a
:0300c4003fffe714
:0300c5000001280f
:0300c600000187af
:0300c7003ff660a1
:0300c8003ffc3cbe
:0300c90000279f6e
:0300ca003ffef204
:0300cb003f815b17
:0300cc000033e01e
:0300cd0002e13419
:0300ce00015a9c38
:0300cf0000e2ed5f
:0300d0003fb50138
:0300d1003fc77fa7
:0300d200001d947a
:0300d300000d9489
:0300d4003ff730c3
:0300d5003ffdfdef
:0300d600000150d6
:0300d70000000026
:0300d80000000025
:0300d90000000024
:0300da0000000023
:0300db0000000022
:0300dc003fffdf04
:0300dd000000eb35
:0300de0000027f9e
:0300df003ff7ad3b
:0300e0003ff6bd2b
:0300e1000024a652
:0300e2000012db2e
:0300e3003f83e870
:0300e4003fee1dcf
:0300e50002e8ee40
:0300e600006feabe
:0300e700010125ef
:0300e8003fd614ec
:0300e9003fbb9387
:0300ea000014916e
:0300eb0000120ff1
:0300ec003ff909d0
:0300ed003ffceaeb
:0300ee00000125e9
:0300ef00000020ee
:00000001FF
