:020000000000fe
:0200010005f206
:0200020001d625
:0200030007c82c
:0200040006965e
:0200050004886d
:02000600006c8c
:02000700065e93
:0200080000eb0b
:0200090006dd12
:02000a0002c131
:02000b0000b340
:02000c0007816a
:02000d00057379
:02000e00015798
:02000f0007499f
:020010000000ee
:020011000632b5
:0200120001cb20
:0200130007fde7
:0200140006786c
:0200150004aa3b
:020016000043a5
:0200170006756c
:020018000124c1
:02001900075688
:02001a0002eff3
:02001b000121c1
:02001c00079c3f
:02001d0005ce0e
:02001e00016778
:02001f0007993f
:020020000000de
:02002100069443
:02002200019d3e
:020023000031aa
:0200240006785c
:02002500050cc8
:020026000015c3
:0200270006a928
:02002800014491
:0200290007d8f6
:02002a0002e1f1
:02002b0001755d
:02002c0007bc0f
:02002d0006507b
:02002e00015976
:02002f0007eddb
:020030000000ce
:02003100070fb7
:02003200015279
:0200330000616a
:0200340006962e
:0200350005a51f
:0200360007e8d9
:0200370006f7ca
:02003800014b7a
:02003900005a6b
:02003a00029d25
:02003b0001ac16
:02003c0007e1da
:02003d0006f0cb
:02003e0001338c
:02003f0000427d
:020040000000be
:0200410007991d
:0200420000efcd
:02004300008833
:0200440006cfe5
:0200450006684b
:0200460007bef3
:02004700075759
:0200480001397c
:0200490000d2e3
:02004a0002288a
:02004b0001c1f1
:02004c000008aa
:02004d0007a109
:02004e0000f7b9
:02004f0000901f
:020050000000ae
:02005100002786
:02005200007d2f
:0200530000a407
:02005400071d86
:0200550007445e
:02005600079a07
:0200570007c1df
:02005800011095
:0200590001376d
:02005a00018d16
:02005b0001b4ee
:02005c00002d75
:02005d0000544d
:02005e0000aaf6
:02005f0000d1ce
:0200600000009e
:0200610000adf0
:0200620000009c
:0200630000adee
:02006400077a19
:02006500002772
:02006600077a17
:02006700002770
:0200680000d3c3
:02006900018014
:02006a0000d3c1
:02006b00018012
:02006c00004d45
:02006d0000fa97
:02006e00004d43
:02006f0000fa95
:0200700000008e
:02007100012369
:020072000790f5
:0200730000b3d8
:0200740007dfa4
:02007500010286
:02007600076f12
:020077000092f5
:020078000089fd
:0200790001acd8
:02007a0000196b
:02007b00013c46
:02007c0000681a
:02007d00018bf5
:02007e0007f881
:02007f00011b63
:0200800000007e
:020081000180fc
:0200820007274e
:0200830000a7d4
:02008400004238
:0200850001c2b6
:02008600076908
:0200870000e98e
:02008800003640
:0200890001b6be
:02008a00075d10
:02008b0000dd96
:02008c000078fa
:02008d0001f878
:02008e00079fca
:02008f00011f4f
:0200900000006e
:0200910001bdaf
:0200920006d294
:02009300008fdc
:02009400009ecc
:02009500025b0c
:020096000770f1
:02009700012d39
:0200980007e27d
:02009900019fc5
:02009a0006b4aa
:02009b000071f2
:02009c000080e2
:02009d00023d22
:02009e00075207
:02009f00010f4f
:00000001FF
