:03000000000000fd
:030001003ffead12
:030002003fff4f6e
:030003000007cc27
:030004000006be35
:030005003fe7864c
:030006003fe137a0
:030007000037fec1
:0300080000695735
:030009003f8e1611
:03000a003e3badcd
:03000b00163d138c
:03000c003e00595a
:03000d000007ad3c
:03000e000086c3a6
:03000f000011706d
:030010003fd08b53
:030011003ff2e5d6
:03001200000dd30b
:0300130000057f66
:030014003ffd6449
:030015003ffedbd0
:03001600000025c2
:03001700000000e6
:030018003fffebbc
:030019003ffebee9
:03001a0000005390
:03001b0000080ad0
:03001c000002756a
:03001d003fe4aa13
:03001e003fed1a99
:03001f000044e2b8
:03002000004e820d
:030021003f5ebe81
:030022003e8b43cf
:030023001562461d
:030024003e1cf08f
:030025000048fa96
:030026000086a3ae
:030027003ffa920b
:030028003fcd2f9a
:030029003ffa9efd
:03002a00001007bc
:03002b000003923d
:03002c003ffca4f2
:03002d003fff1979
:03002e0000003996
:03002f00000000ce
:030030003fffddb2
:030031003ffee6a9
:0300320000014585
:030033000007aa19
:030034003ffe1e6e
:030035003fe3f6b0
:030036003ffa206e
:03003700004c3a40
:03003800002e6334
:030039003f3d0741
:03003a003ef2deb5
:03003b001400d7d7
:03003c003e6157cb
:03003d000086a793
:03003e00007c063d
:03003f003fe3900c
:030040003fcdb3fe
:030041000002fbbf
:0300420000110c9e
:0300430000014c6d
:030044003ffc1f5f
:030045003fff6e0c
:0300460000004a6d
:03004700000000b6
:030048003fffd3a4
:030049003fff2155
:03004a000002139e
:03004b000006b9f3
:03004c003ffa0e6a
:03004d003fe56824
:03004e0000074464
:03004f00004d9ac7
:03005000000b8b17
:030051003f2b142e
:030052003f69a65d
:030053001228f977
:030054003eca8a17
:0300550000bbc825
:03005600006779c7
:030057003fce3366
:030058003fd2256f
:03005900000b5841
:03005a000010c4cf
:03005b003ffed78e
:03005c003ffbe384
:03005d003fffd38f
:03005e0000005748
:03005f000000009e
:030060003fffce91
:030061003fff6af4
:030062000002b1e8
:0300630000054e47
:030064003ff691d3
:030065003fe8d49d
:03006600001385ff
:0300670000490c41
:030068003fe8b1bd
:030069003f29c963
:03006a003fe61559
:03006b000ff0177c
:03006c003f528878
:03006d0000e3f6b7
:03006e00004a55f0
:03006f003fbc3063
:030070003fda482c
:0300710000130d6c
:03007200000f2a52
:030073003ffc62ed
:030074003ffbf857
:0300750000004246
:0300760000005e29
:0300770000000086
:030078003fffcd7a
:030079003fffb98d
:03007a000003136d
:03007b00000389f6
:03007c003ff3e867
:03007d003fedeb69
:03007e00001dfc66
:03007f00003f0e31
:030080003fc87afc
:030081003f38c243
:03008200005ead70
:030083000d6fa757
:030084003ff0a0aa
:0300850000fba3da
:030086000026a5ac
:030087003faf0286
:030088003fe591c0
:0300890000197dde
:03008a00000c5314
:03008b003ffa1f1a
:03008c003ffc5fd7
:03008d000000b2be
:03008e0000005e11
:03008f000000006e
:030090003fffd15e
:030091000000006c
:0300920000033632
:03009300000190d9
:030094003ff23ff9
:030095003ff43df8
:030096000025e85a
:03009700003083b3
:030098003fad4633
:030099003f56656a
:03009a0000caa7f2
:03009b000ac3d1c4
:03009c000099eddb
:03009d0001006ef1
:03009e003fff041d
:03009f003fa7d0a8
:0300a0003ff332f9
:0300a100001e1e20
:0300a200000870e3
:0300a3003ff83ee5
:0300a4003ffd1409
:0300a50000011a3d
:0300a60000005601
:0300a70000000056
:0300a8003fffd740
:0300a90000005301
:0300aa0000031838
:0300ab003fff8b89
:0300ac003ff1af72
:0300ad003ffb47cf
:0300ae00002ac065
:0300af00001ea38d
:0300b0003f99076e
:0300b1003f800786
:0300b20001228e9a
:0300b3000809e059
:0300b40001420402
:0300b50000f158ff
:0300b6003fd66cc6
:0300b7003fa74e12
:0300b80000022c17
:0300b9000020859f
:0300ba000003c47c
:0300bb003ff6e825
:0300bc003ffe0cf8
:0300bd00000172cd
:0300be00000046f9
:0300bf000000003e
:0300c0003fffe01f
:0300c100000092aa
:0300c2000002c178
:0300c3003ffda35b
:0300c4003ff239cf
:0300c50000027bbb
:0300c600002c38d3
:0300c700000ade4e
:0300c8003f8d1b4e
:0300c9003fb22b18
:0300ca000160bf13
:0300cb00055ec807
:0300cc0001dbc68f
:0300cd0000cee47e
:0300ce003fb00040
:0300cf003fadb191
:0300d00000115dbf
:0300d10000207498
:0300d2003ffea945
:0300d3003ff63cb9
:0300d4003fff36b5
:0300d5000001b176
:0300d60000002ef9
:0300d70000000026
:0300d8003fffebfc
:0300d9000000c262
:0300da00000237ea
:0300db003ffbfaee
:0300dc003ff3ca25
:0300dd0000094bcc
:0300de00002a4ca9
:0300df003ff6c128
:0300e0003f8a3321
:0300e1003fe8c92c
:0300e2000181b7e2
:0300e30002dd92a9
:0300e400025a506d
:0300e500009b1b62
:0300e6003f8ecc7e
:0300e7003fbaa578
:0300e800001f9660
:0300e900001dda1d
:0300ea003ff9805b
:0300eb003ff64f8e
:0300ec0000007d94
:0300ed000001d13e
:0300ee000000000f
:0300ef000000000e
:00000001FF
