:03000000000000fd
:03000100000000fc
:03000200000000fb
:03000300000000fa
:030004003fffdae1
:0300050000009e5a
:0300060000033bb9
:030007003ff99826
:030008003ff220a4
:03000900001ed402
:03000a000024cf00
:03000b003f9048db
:03000c003fabe027
:03000d0002b63701
:03000e003f6596b5
:03000f00010b4999
:030010003ffb6152
:030011003fb4f504
:030012000009a83a
:0300130000152fa6
:030014003ffb842b
:030015003ffc0da0
:030016000000df08
:0300170000002fb7
:03001800000000e5
:03001900000000e4
:03001a00000000e3
:03001b00000000e2
:03001c003fffd9ca
:03001d0000004997
:03001e000003ae2e
:03001f003ffbf6ae
:030020003feebff1
:030021000016b115
:0300220000336c3c
:030023003fa545b1
:030024003f724eda
:0300250002510481
:030026003e4df25a
:0300270000ffdcfb
:030028000021faba
:030029003fb44f92
:03002a003ffdb1e6
:03002b000016aa12
:03002c003ffe7222
:03002d003ffb7c1a
:03002e000000824d
:03002f0000003c92
:03003000000000cd
:03003100000000cc
:03003200000000cb
:03003300000000ca
:030034003fffdcaf
:03003500000000c8
:030036000003d1f3
:030037003ffe94f5
:030038003fecd5c5
:03003900000cf2c6
:03003a00003d9aec
:03003b003fc100c2
:03003c003f45b28b
:03003d0001c46f8c
:03003e003d3e0a3a
:03003f0000df17c8
:030040000046bfb8
:030041003fb9d3f1
:030042003ff1a0eb
:0300430000165450
:0300440000019820
:030045003ffb443a
:03004600000016a1
:0300470000004472
:03004800000000b5
:03004900000000b4
:03004a00000000b3
:03004b00000000b2
:03004c003fffe192
:03004d003fffa3cf
:03004e000003a606
:03004f0000013974
:030050003fec7f03
:0300510000026743
:030052000042a5c4
:030053003fe11971
:030054003f29330e
:03005500011dc0ca
:030056003c4c64bb
:0300570000aaef0d
:030058000066a699
:030059003fc5316f
:03005a003fe6700e
:03005b0000142965
:03005c000004b6e7
:03005d003ffb6ef8
:03005e003fffa2bf
:03005f0000004856
:030060000000009d
:030061000000009c
:030062000000009b
:030063000000009a
:030064003fffe873
:030065003fff5ffb
:0300660000033262
:030067000003afe4
:030068003fedb9b0
:030069003ff7ec72
:03006a000042420f
:03006b000002eaa6
:03006c003f1e999b
:03006d00006b54d1
:03006e003b8f9d28
:03006f000066fd2b
:03007000007ef718
:030071003fd59eda
:030072003fdd125d
:0300730000104832
:0300740000078bf7
:030075003ffbfa54
:030076003fff2f1a
:0300770000004640
:0300780000000085
:0300790000000084
:03007a0000000083
:03007b0000000082
:03007c0000000081
:03007d003fff2b17
:03007e00000282fb
:03007f000005c7b2
:030080003ff05fef
:030081003fee58f7
:03008200003c99a6
:030083000023b6a1
:030084003f2636de
:030085003fbb84fa
:030086003b1ceb35
:030087000018431b
:03008800008d8662
:030089003fe9e26a
:03008a003fd6530b
:03008b00000af870
:03008c000009d890
:03008d003ffce055
:03008e003ffec86a
:03008f0000003d31
:030090000000006d
:030091000000006c
:030092000000006b
:030093000000006a
:0300940000000069
:030095003fff0b1f
:030096000001a6c0
:0300970000075708
:030098003ff43200
:030099003fe668d7
:03009a0000323df4
:03009b000040e63c
:03009c003f3ee9fb
:03009d003f1b986e
:03009e003b06b36b
:03009f003fc4ce8d
:0300a0000090e4e9
:0300a10000006cf0
:0300a2003fd2d278
:0300a30000049db9
:0300a400000b68e6
:0300a5003ffe1209
:0300a6003ffe76a4
:0300a70000002e28
:0300a80000000055
:0300a90000000054
:0300aa0000000053
:0300ab0000000052
:0300ac0000000051
:0300ad003fff0111
:0300ae000000b19e
:0300af0000084600
:0300b0003ff8da3c
:0300b1003fe0b479
:0300b20000241b0c
:0300b30000583db5
:0300b4003f663f65
:0300b5003e96e193
:0300b6003b5b2889
:0300b7003f734450
:0300b80000888538
:0300b900001774b9
:0300ba003fd2eb47
:0300bb003ffdb650
:0300bc00000c161f
:0300bd003fff788a
:0300be003ffe40c2
:0300bf0000001a24
:0300c0000000003d
:0300c1000000003c
:0300c2000000003b
:0300c3000000003a
:0300c40000000039
:0300c5003fff0bef
:0300c6003fffb940
:0300c700000884aa
:0300c8003ffdf306
:0300c9003fdda276
:0300ca0000136cb4
:0300cb00006802c8
:0300cc003f98b1a9
:0300cd003e35febf
:0300ce003c2330a0
:0300cf003f2a5e67
:0300d0000074cced
:0300d100002d1ae5
:0300d2003fd6b462
:0300d3003ff6d025
:0300d400000bcb53
:0300d5000000f632
:0300d6003ffe2dbd
:0300d70000000026
:0300d80000000025
:0300d90000000024
:0300da0000000023
:0300db0000000022
:0300dc0000000021
:0300dd003fff28ba
:0300de003ffed012
:0300df0000081303
:0300e00000031208
:0300e1003fdd619f
:0300e20000019288
:0300e300006f208b
:0300e4003fd1ed1c
:0300e5003dfe607d
:0300e6003d6187f2
:0300e7003ef05f89
:0300e80000570bb3
:0300e900003f9342
:0300ea003fddf304
:0300eb003ff07b68
:0300ec00000a8681
:0300ed0000026f9f
:0300ee003ffe4092
:0300ef003fffe6ea
:00000001FF
