:03000000000000fd
:03000100030a559a
:030002001f06b422
:03000300021109de
:030004001f58e1a1
:030005000263365d
:030006001e5f95e5
:030007000169eaa2
:03000800000000f5
:03000900042ccdf7
:03000a001dcbba51
:03000b0001f88772
:03000c00007ac9ae
:03000d0004a796af
:03000e001e468308
:03000f0002735029
:03001000000000ed
:0300110004f54ea5
:030012001cc59476
:0300130001bae24d
:030014000189db84
:03001500067f293a
:030016001e4f6f0b
:030017000344bde2
:03001800000000e5
:0300190005576028
:03001a001c067d44
:03001b00015ddda7
:03001c0002721f4e
:03001d0007c97f91
:03001e001e789cad
:03001f0003cffc10
:03002000000000dd
:03002100054eb8d1
:030022001b9ab670
:0300230000e96e83
:0300240003233a79
:030025000871f26d
:030026001ebdf00c
:03002700040ca81e
:03002800000000d5
:0300290004df49a8
:03002a001b87c56c
:03002b0000670e5d
:03002c0003918eaf
:03002d000870d781
:03002e001f195344
:03002f0003f89c37
:03003000000000cd
:030031000414bcf8
:030032001bcc3da7
:030033001fe0f9d2
:0300340003b6f31d
:0300350007cbaf47
:030036001f8330f5
:030037000397ec40
:03003800000000c5
:0300390003014878
:03003a001c60182f
:03003b001f6160e2
:03003c0003930526
:03003d0006944dd9
:03003e001ff31d90
:03003f0002f46563
:03004000000000bd
:0300410001bc20df
:030042001d358edb
:030043001ef1aefd
:03004400032af399
:0300450004e713ba
:03004600006081d6
:03004700021ca1f7
:03004800000000b5
:03004900005f87ce
:03004a001e3a4318
:03004b001e99ca31
:03004c000288f334
:03004d0002e87a4c
:03004e0000c336b6
:03004f000122bdce
:00000001FF
