:03000000000000fd
:0300010000002ece
:030002000001b149
:030003003fff3686
:030004003ff63c88
:030005003ffea912
:0300060000207463
:0300070000115d88
:030008003fadb158
:030009003fb00005
:03000a0000cee441
:03000b0001dbc650
:03000c00055ec8c6
:03000d000160bfd0
:03000e003fb22bd3
:03000f003f8d1b07
:03001000000ade05
:03001100002c3888
:0300120000027b6e
:030013003ff23980
:030014003ffda30a
:030015000002c125
:0300160000009255
:030017003fffe0c8
:03001800000000e5
:030019000000469e
:03001a0000017270
:03001b003ffe0c99
:03001c003ff6e8c4
:03001d000003c419
:03001e000020853a
:03001f0000022cb0
:030020003fa74ea9
:030021003fd66c5b
:0300220000f15892
:0300230001420493
:030024000809e0e8
:0300250001228e27
:030026003f800711
:030027003f9907f7
:03002800001ea314
:03002900002ac0ea
:03002a003ffb4752
:03002b003ff1aff3
:03002c003fff8b08
:03002d00000318b5
:03002e000000537c
:03002f003fffd7b9
:03003000000000cd
:0300310000005676
:0300320000011ab0
:030033003ffd147a
:030034003ff83e54
:0300350000087050
:03003600001e1e8b
:030037003ff33262
:030038003fa7d00f
:030039003fff0482
:03003a0001006e54
:03003b000099ed3c
:03003c000ac3d123
:03003d0000caa74f
:03003e003f5665c5
:03003f003fad468c
:030040000030830a
:030041000025e8af
:030042003ff43d4b
:030043003ff23f4a
:0300440000019028
:030045000003367f
:03004600000000b7
:030047003fffd1a7
:03004800000000b5
:0300490000005e56
:03004a000000b201
:03004b003ffc5f18
:03004c003ffa1f59
:03004d00000c5351
:03004e0000197d19
:03004f003fe591f9
:030050003faf02bd
:030051000026a5e1
:0300520000fba30d
:030053003ff0a0db
:030054000d6fa786
:03005500005ead9d
:030056003f38c26e
:030057003fc87a25
:03005800003f0e58
:03005900001dfc8b
:03005a003fedeb8c
:03005b003ff3e888
:03005c0000038915
:03005d000003138a
:03005e003fffb9a8
:03005f003fffcd93
:030060000000009d
:0300610000005e3e
:0300620000004259
:030063003ffbf868
:030064003ffc62fc
:03006500000f2a5f
:0300660000130d77
:030067003fda4835
:030068003fbc306a
:03006900004a55f5
:03006a0000e3f6ba
:03006b003f528879
:03006c000ff0177b
:03006d003fe61556
:03006e003f29c95e
:03006f003fe8b1b6
:0300700000490c38
:03007100001385f4
:030072003fe8d490
:030073003ff691c4
:0300740000054e36
:030075000002b1d5
:030076003fff6adf
:030077003fffce7a
:0300780000000085
:030079000000572d
:03007a003fffd372
:03007b003ffbe365
:03007c003ffed76d
:03007d000010c4ac
:03007e00000b581c
:03007f003fd22548
:030080003fce333d
:030081000067799c
:0300820000bbc8f8
:030083003eca8ae8
:030084001228f946
:030085003f69a62a
:030086003f2b14f9
:03008700000b8be0
:03008800004d9a8e
:0300890000074429
:03008a003fe568e7
:03008b003ffa0e2b
:03008c000006b9b2
:03008d000002135b
:03008e003fff2110
:03008f003fffd35d
:030090000000006d
:0300910000004a22
:030092003fff6ebf
:030093003ffc1f10
:0300940000014c1c
:0300950000110c4b
:030096000002fb6a
:030097003fcdb3a7
:030098003fe390b3
:03009900007c06e2
:03009a000086a736
:03009b003e61576c
:03009c001400d776
:03009d003ef2de52
:03009e003f3d07dc
:03009f00002e63cd
:0300a000004c3ad7
:0300a1003ffa2003
:0300a2003fe3f643
:0300a3003ffe1eff
:0300a4000007aaa8
:0300a50000014512
:0300a6003ffee634
:0300a7003fffdd3b
:0300a80000000055
:0300a9000000391b
:0300aa003fff19fc
:0300ab003ffca473
:0300ac00000392bc
:0300ad0000100739
:0300ae003ffa9e78
:0300af003fcd2f13
:0300b0003ffa9282
:0300b1000086a323
:0300b2000048fa09
:0300b3003e1cf000
:0300b4001562468c
:0300b5003e8b433c
:0300b6003f5ebeec
:0300b700004e8276
:0300b8000044e21f
:0300b9003fed1afe
:0300ba003fe4aa76
:0300bb00000275cb
:0300bc0000080a2f
:0300bd00000053ed
:0300be003ffebe44
:0300bf003fffeb15
:0300c0000000003d
:0300c10000002517
:0300c2003ffedb23
:0300c3003ffd649a
:0300c40000057fb5
:0300c500000dd358
:0300c6003ff2e521
:0300c7003fd08b9c
:0300c800001170b4
:0300c9000086c3eb
:0300ca000007ad7f
:0300cb003e00599b
:0300cc00163d13cb
:0300cd003e3bad0a
:0300ce003f8e164c
:0300cf000069576e
:0300d0000037fef8
:0300d1003fe137d5
:0300d2003fe7867f
:0300d3000006be66
:0300d4000007cc56
:0300d5003fff4f9b
:0300d6003ffead3d
:0300d70000000026
:0300d80000000025
:0300d90000000024
:0300da003ffeb72f
:0300db003ffe4e97
:0300dc000006ef2c
:0300dd00000aa373
:0300de003fec6094
:0300df003fd76c9c
:0300e00000266e89
:0300e100007ca8f8
:0300e2003fc7c94c
:0300e3003e0b9041
:0300e40016872656
:0300e5003e0b903f
:0300e6003fc7c948
:0300e700007ca8f2
:0300e80000266e81
:0300e9003fd76c92
:0300ea003fec6088
:0300eb00000aa365
:0300ec000006ef1c
:0300ed003ffe4e85
:0300ee003ffeb71b
:0300ef000000000e
:00000001FF
