:03000000000000fd
:03000100004c8b25
:030002000368454b
:0300030003b4d073
:0300040000ec2be2
:030005000138b609
:0300060000547033
:0300070000a0fb5b
:03000800000000f5
:03000900002922a9
:03000a00038ac6a0
:03000b0003b3e854
:03000c0000d4fa23
:03000d0000fe1cd6
:03000e00005fc0d0
:03000f000088e284
:03001000000000ed
:03001100000000ec
:0300120003b880b0
:0300130003b880af
:0300140000abb985
:0300150000abb984
:030016000064394a
:0300170000643949
:03001800000000e5
:0300190003d51af2
:03001a0003ee638f
:03001b0003c37d9f
:03001c000072cca3
:03001d000047e6b3
:03001e0000612f4f
:03001f000036495f
:03002000000000dd
:0300210003aacc63
:0300220000288b28
:0300230003d357ad
:03002400002df8b4
:0300250003d8c439
:03002600005683fe
:0300270000014f86
:03002800000000d5
:030029000384e06d
:03002a0000628ce5
:03002b0003e76c7c
:03002c0003e225c7
:03002d0003670561
:03002e000044b1da
:03002f0003c99171
:03003000000000cd
:030031000366a3c0
:030032000097be76
:0300330003fe6168
:0300340003950829
:0300350002fbab20
:03003600002cc6d5
:03003700039369c7
:03003800000000c5
:030039000352f47b
:03003a0000c3a15f
:03003b0000169517
:03003c00034cb3bf
:03003d00029fa778
:03003e000010545b
:03003f0003634810
:03004000000000bd
:03004100034bff6f
:0300420000e238a1
:03004300002e3755
:03004400030f2582
:03004500025b2437
:0300460003f15d66
:03004700033d5c1a
:03004800000000b5
:0300490003530955
:03004a0000f06261
:03004b0000436b04
:03004c0002e1c509
:03004d000234ceac
:03004e0003d227b3
:03004f0003253056
:00000001FF
