:020000000000fe
:02000100007b82
:0200020000b943
:020003000134c6
:020004000e7379
:020005000eeefd
:020006000f2cbd
:020007000fa741
:0200080001fff6
:02000900027a79
:02000a0002b83a
:02000b000333bd
:02000c00007280
:02000d0000ed04
:02000e00012bc4
:02000f0001a648
:020010000000ee
:02001100016d7f
:020012000fda03
:020013000147a3
:020014000f28b3
:02001500009554
:020016000f02d7
:02001700006f78
:02001800018263
:0200190002eff4
:02001a00015c87
:02001b0002c918
:02001c0000aa38
:02001d000217c8
:02001e0000845c
:02001f0001f1ed
:020020000000de
:02002100023d9e
:020022000f02cb
:02002300013f9b
:020024000fe9e2
:020025000226b1
:020026000eebdf
:020027000128ae
:0200280000ecea
:020029000329a9
:02002a000feed7
:02002b00022ba6
:02002c0000d5fd
:02002d000312bc
:02002e000fd7ea
:02002f000214b9
:020030000000ce
:0200310002dcef
:020032000e447a
:020033000120aa
:0200340000a624
:02003500038244
:020036000eead0
:0200370001c600
:0200380000487e
:0200390003249e
:02003a000e8c2a
:02003b0001685a
:02003c0000eed4
:02003d0003caf4
:02003e000f327f
:02003f00020eaf
:020040000000be
:0200410003407a
:020042000dac03
:0200430000eccf
:02004400015267
:02004500049223
:020046000efeac
:02004700023e77
:020048000fa304
:0200490002e3d0
:02004a000d4f58
:02004b00008f24
:02004c0000f5bd
:02004d00043578
:02004e000ea101
:02004f0001e1cd
:020050000000ae
:02005100036248
:020052000d455a
:0200530000a704
:0200540001e0c9
:02005500054262
:020056000f2574
:0200570002871e
:020058000f0a8d
:02005900026c37
:02005a000c4f49
:02005b000fb1e3
:02005c0000eab8
:02005d00044c51
:02005e000e2f63
:02005f0001910d
:0200600000009e
:02006100034258
:020062000d1679
:02006300005843
:02006400024652
:0200650005880c
:020066000f5c2d
:02006700029ef7
:020068000e8701
:0200690001c9cb
:02006a000b9dec
:02006b000edfa6
:02006c0000cdc5
:02006d00040f7e
:02006e000de3a0
:02006f00012569
:0200700000008e
:0200710002e3a8
:020072000d215e
:02007300000487
:02007400027d0b
:02007500056024
:020076000f9edb
:02007700028104
:020078000e2553
:0200790001087c
:02007a000b4633
:02007b000e294c
:02007c0000a2e0
:02007d000385f9
:02007e000dc3b0
:02007f0000a6d9
:0200800000007e
:02008100024e2d
:020082000d640b
:020083000fb2ba
:020084000282f6
:0200850004d0a5
:020086000fe683
:02008700023441
:020088000de980
:0200890000373e
:02008a000b4d1c
:02008b000d9bcb
:02008c00006b07
:02008d0002b9b6
:02008e000dcf94
:02008f00001d52
:0200900000006e
:020091000191db
:020092000dd887
:020093000f69f3
:02009400025711
:0200950003e87e
:02009600002f39
:0200970001c0a6
:020098000dd881
:020099000f69ed
:02009a000bb0a9
:02009b000d4115
:02009c00002f33
:02009d0001c0a0
:02009e000e074b
:02009f000f98b8
:00000001FF
