:03000000000000fd
:0300010000003ebe
:030002001fff9647
:030003001fff409c
:0300040000036a8c
:030005001ffc9845
:030006001ffb06d7
:030007000011ce17
:030008001ff0c91d
:030009001fe836b7
:03000a0000612270
:03000b001f13d0f0
:03000c0000590791
:03000d001fbaec2b
:03000e0000127f5e
:03000f00000c459d
:030010001ff1c21b
:030011000003e603
:030012000002a247
:030013001ffd7955
:0300140000008564
:03001500000044a4
:030016001fffe1e8
:03001700000000e6
:030018001ffff9ce
:03001900000036ae
:03001a001ffff2d3
:03001b001ffe9d28
:03001c00000302dc
:03001d001fffaf13
:03001e001ff708c1
:03001f00000f8a45
:030020001fff3986
:030021001fd6796e
:030022000052dcad
:030023001ffef1cc
:03002400009ec17a
:030025001fc3a452
:030026001fff2495
:030027000014caf8
:030028001ff3caf9
:030029001fff991d
:03002a0000045c73
:03002b001ffddbdb
:03002c001fffeac9
:03002d0000006f61
:03002e001fffe5cc
:03002f00000000ce
:030030001ffff8b7
:03003100000021ab
:0300320000004e7d
:030033001ffe5e4f
:030034000001d3f5
:030035000002c402
:030036001ff58330
:0300370000093984
:03003800000d8434
:030039001fd033a2
:03003a00002f7123
:03003b0000c5feff
:03003c0000bda85c
:03003d001fdd1ca8
:03003e001feb8035
:03003f000017e1c6
:030040001ff93075
:030041001ffb4b57
:030042000004f4c3
:030043001ffed6c7
:030044001fff4e4d
:0300450000007e3a
:030046001ffff2a7
:03004700000000b6
:030048001ffffa9d
:03004900000005af
:03004a0000009023
:03004b001ffe8f06
:03004c000000327f
:03004d00000509a2
:03004e001ff6cfcb
:03004f0000009e10
:030050000017e1b5
:030051001fd6bafd
:03005200000104a6
:03005300013f3c2e
:0300540000aa33cc
:030055000000fdab
:030056001fdce6c6
:03005700001493ff
:0300580000009114
:030059001ff82568
:03005a0000043867
:03005b0000002b77
:03005c001ffedca8
:03005d0000006b35
:03005e000000009f
:03005f000000009e
:030060000000009d
:030061001fffe995
:030062000000aaf1
:030063001fff1f5d
:030064001ffe92ea
:030065000005e8ab
:030066001ffa80fe
:030067001ff80f70
:03006800001badcd
:030069001fe7fa94
:03006a001fd42f71
:03006b00015870c9
:03006c000065b27a
:03006d000025e18a
:03006e001fd77029
:03006f00000b9be8
:030070000007fb8b
:030071001ff70c6a
:0300720000025039
:0300730000018009
:030074001ffeb6b6
:030075000000394f
:0300760000001572
:0300770000000086
:00000001FF
