:0400000000000000fc
:0400010000000000fb
:0400020000000000fa
:0400030000000000f9
:0400040000000000f8
:0400050000000000f7
:0400060000000000f6
:0400070000000000f5
:0400080000000044b0
:0400090001fffd6591
:04000a0001fff314eb
:04000b0001ffe68c7f
:04000c0001fff2ac52
:04000d000000432389
:04000e00000112ddfe
:04000f00000803fee4
:0400100001ffad340b
:040011000000528613
:04001200000049f8a9
:0400130000001f8248
:04001400000003a540
:0400150001fffc7378
:0400160001fffe1fc9
:0400170001ffffcb1b
:0400180000000000e4
:0400190000000000e3
:04001a0000000000e2
:04001b0000000000e1
:04001c0000000000e0
:04001d0000000000df
:04001e0000000000de
:04001f0000000000dd
:040020000000006478
:0400210001fffdeef0
:0400220001fff3b037
:0400230001ffe527cd
:0400240001ffebd914
:04002500000035b5ed
:040026000001057c54
:040027000007a8dd49
:0400280001ff7eb6a0
:04002900000043a4ec
:04002a000000485f2b
:04002b00000022139c
:04002c00000005a625
:04002d0001fffd14be
:04002e0001fffe23ad
:04002f0001ffffc509
:0400300000000000cc
:0400310000000000cb
:0400320000000000ca
:0400330000000000c9
:0400340000000000c8
:0400350000000000c7
:0400360000000000c6
:0400370000000000c5
:040038000000008242
:0400390001fffe7a4b
:04003a0001fff4735b
:04003b0001ffe42ab3
:04003c0001ffe57566
:04003d00000027dbbd
:04003e000000f4f3d7
:04003f00000746620e
:0400400001ff500864
:040041000000336c1c
:04004200000045b6bf
:04004300000024385d
:04004400000007a011
:0400450001fffdc5f5
:0400460001fffe2f89
:0400470001ffffbff7
:0400480000000000b4
:0400490000000000b3
:04004a0000000000b2
:04004b0000000000b1
:04004c0000000000b0
:04004d0000000000af
:04004e0000000000ae
:04004f0000000000ad
:040050000000009c10
:0400510001ffff06a6
:0400520001fff55a5b
:0400530001ffe39630
:0400540001ffdf9534
:04005500000019c6c8
:040056000000e1962f
:040057000006dd5c66
:0400580001ff21cab9
:040059000000221071
:04005a00000042015f
:04005b00000025e795
:04005c000000098e09
:04005d0001fffe841d
:04005e0001fffe425e
:04005f0001ffffb9e5
:04006000000000009c
:04006100000000009b
:04006200000000009a
:040063000000000099
:040064000000000098
:040065000000000097
:040066000000000096
:040067000000000095
:04006800000000b2e2
:0400690001ffff9004
:04006a0001fff65f3d
:04006b0001ffe36b43
:04006c0001ffda4b6b
:04006d0000000babd9
:04006e000000cbbd06
:04006f0000066ea772
:0400700001fef4a0f9
:0400710000000fc7b5
:0400720000003d4706
:04007300000027174b
:0400740000000b6617
:0400750001ffff5038
:0400760001fffe5d2b
:0400770001ffffb4d2
:040078000000000084
:040079000000000083
:04007a000000000082
:04007b000000000081
:04007c000000000080
:04007d00000000007f
:04007e00000000007e
:04007f00000000007d
:04008000000000c4b8
:040081000000001665
:0400820001fff78003
:0400830001ffe3a7ef
:0400840001ffd5a4ff
:0400850001fffdbac0
:040086000000b3c8fb
:040087000005fb2550
:0400880001fec93379
:0400890001fffccdaa
:04008a0000003792a9
:04008b00000027c189
:04008c0000000d2241
:04008d00000000254a
:04008e0001fffe7ff1
:04008f0001ffffb0be
:04009000000000006c
:04009100000000006b
:04009200000000006a
:040093000000000069
:040094000000000068
:040095000000000067
:040096000000000066
:040097000000000065
:04009800000000d391
:0400990000000097cc
:04009a0001fff8b5b5
:04009b0001ffe44637
:04009c0001ffd1b0df
:04009d0001fff0244b
:04009e0000009a1ba9
:04009f00000583c510
:0400a00001fea02d90
:0400a10001ffe96012
:0400a200000030f337
:0400a300000027de54
:0400a40000000ebb8f
:0400a5000000010254
:0400a60001fffea9af
:0400a70001ffffada9
:0400a8000000000054
:0400a9000000000053
:0400aa000000000052
:0400ab000000000051
:0400ac000000000050
:0400ad00000000004f
:0400ae00000000004e
:0400af00000000004d
:0400b000000000dd6f
:0400b1000000011139
:0400b20001fff9fc55
:0400b30001ffe54321
:0400b40001ffce7703
:0400b50001ffe3174d
:0400b60000007f1bac
:0400b70000050977c0
:0400b80001fe7a3695
:0400b90001ffd5c4aa
:0400ba000000297b9e
:0400bb000000276ab0
:0400bc000000102907
:0400bd00000001e25c
:0400be0001fffeda66
:0400bf0001ffffab93
:0400c000000000003c
:0400c100000000003b
:0400c200000000003a
:0400c3000000000039
:0400c4000000000038
:0400c5000000000037
:0400c6000000000036
:0400c7000000000035
:0400c800000000e450
:0400c90000000182b0
:0400ca0001fffb4ee9
:0400cb0001ffe699b2
:0400cc0001ffcc0064
:0400cd0001ffd6be9b
:0400ce00000063319a
:0400cf0000048d3369
:0400d00001fe57f8de
:0400d10001ffc23f2a
:0400d20000002141c8
:0400d300000026659e
:0400d40000001167b0
:0400d500000002c362
:0400d60001ffff1215
:0400d70001ffffaa7c
:0400d8000000000024
:0400d9000000000023
:0400da000000000022
:0400db000000000021
:0400dc000000000020
:0400dd00000000001f
:0400de00000000001e
:0400df00000000001d
:0400e000000000e735
:0400e100000001ea30
:0400e20001fffca777
:0400e30001ffe841f0
:0400e40001ffca51fd
:0400e50001ffcb400c
:0400e600000046c30d
:0400e70000040feb17
:0400e80001fe3a15c6
:0400e90001ffaf174d
:0400ea000000185d9d
:0400eb00000024ce1f
:0400ec000000126e90
:0400ed00000003a26a
:0400ee0001ffff4fc0
:0400ef0001ffffab63
:0400f000000000000c
:0400f100000000000b
:0400f200000000000a
:0400f3000000000009
:0400f4000000000008
:0400f5000000000007
:0400f6000000000006
:0400f7000000000005
:0400f800000000e61e
:0400f90000000246bb
:0400fa0001fffe0103
:0400fb0001ffea32e5
:0400fc0001ffc96acd
:0400fd0001ffc0c17e
:0400fe0000002a389c
:0400ff0000039295d3
:0401000001fe212bb0
:0401010001ff9c92cc
:0401020000000eedfe
:04010300000022a72f
:0401040000001339ab
:040105000000047b77
:0401060001ffff9363
:0401070001ffffad48
:0401080000000000f3
:0401090000000000f2
:04010a0000000000f1
:04010b0000000000f0
:04010c0000000000ef
:04010d0000000000ee
:04010e0000000000ed
:04010f0000000000ec
:04011000000000e209
:040111000000029751
:0401120001ffff5793
:0401130001ffec6498
:0401140001ffc949d5
:0401150001ffb75fd0
:0401160000000df3e5
:0401170000031621aa
:0401180001fe0dd106
:0401190001ff8af860
:04011a000000050ece
:04011b0000001ff5cc
:04011c00000013c408
:04011d000000054b8e
:04011e0001ffffdb03
:04011f0001ffffb12c
:0401200000000000db
:0401210000000000da
:0401220000000000d9
:0401230000000000d8
:0401240000000000d7
:0401250000000000d6
:0401260000000000d5
:0401270000000000d4
:04012800000000dbf8
:04012900000002dcf4
:04012a00000000a62b
:04012b0001ffeecd15
:04012c0001ffc9ec1a
:04012d0001ffaf36e9
:04012e0001fff25487
:04012f0000029b77b8
:0401300001fe00923a
:0401310001ff7a8fc1
:0401320001fffae3ec
:0401330000001cbdef
:040134000000140aa9
:040135000000060fb1
:04013600000000279e
:0401370001ffffb70e
:0401380000000000c3
:0401390000000000c2
:04013a0000000000c1
:04013b0000000000c0
:04013c0000000000bf
:04013d0000000000be
:04013e0000000000bd
:04013f0000000000bc
:04014000000000d1ea
:0401410000000313a4
:04014200000001e8d0
:0401430001fff16364
:0401440001ffcb4aa2
:0401450001ffa85bb3
:0401460001ffd7b529
:040147000002237c13
:0401480001fdf9f0cc
:0401490001ff6b99ae
:04014a0001fff08e33
:04014b000000190a8d
:04014c000000140893
:04014d00000006c3e5
:04014e000000007637
:04014f0001ffffbfee
:0401500000000000ab
:0401510000000000aa
:0401520000000000a9
:0401530000000000a8
:0401540000000000a7
:0401550000000000a6
:0401560000000000a5
:0401570000000000a4
:04015800000000c5de
:040159000000033d62
:04015a000000031985
:04015b0001fff41c90
:04015c0001ffcd5b77
:04015d0001ffa2de1e
:04015e0001ffbe6c73
:04015f000001af03e9
:0401600001fdfa5d46
:0401610001ff5e56e6
:0401620001ffe6347f
:04016300000014e4a0
:04016400000013bec6
:04016500000007632c
:04016600000000c7ce
:0401670001ffffc8cd
:040168000000000093
:040169000000000092
:04016a000000000091
:04016b000000000090
:04016c00000000008f
:04016d00000000008e
:04016e00000000008d
:04016f00000000008c
:04017000000000b6d5
:04017100000003592e
:04017200000004364f
:0401730001fff6eda5
:0401740001ffd014a3
:0401750001ff9ecb1d
:0401760001ffa6c51a
:0401770000013eda6b
:0401780001fe024042
:0401790001ff53022d
:04017a0001ffdbfaac
:04017b000000105917
:04017c000000132943
:04017d00000007ee89
:04017e000000011864
:04017f0001ffffd3aa
:04018000000000007b
:04018100000000007a
:040182000000000079
:040183000000000078
:040184000000000077
:040185000000000076
:040186000000000075
:040187000000000074
:04018800000000a6cd
:040189000000036906
:04018a000000053b31
:04018b0001fff9ccab
:04018c0001ffd36636
:04018d0001ff9c27ab
:04018e0001ff9106d6
:04018f000000d3badf
:0401900001fe11eb70
:0401910001ff49d150
:0401920001ffd20592
:0401930000000b76e7
:040194000000124a0b
:0401950000000861fd
:0401960000000169fb
:0401970001ffffe085
:040198000000000063
:040199000000000062
:04019a000000000061
:04019b000000000060
:04019c00000000005f
:04019d00000000005e
:04019e00000000005d
:04019f00000000005c
:0401a00000000094c7
:0401a1000000036bec
:0401a200000006252e
:0401a30001fffcaeae
:0401a40001ffd7433d
:0401a50001ff9af5c7
:0401a60001ff7d6e6a
:0401a70000006e5294
:0401a80001fe29a487
:0401a90001ff42f51b
:0401aa0001ffc87d0c
:0401ab000000064bff
:0401ac00000011221c
:0401ad00000008b88e
:0401ae00000001b993
:0401af0001ffffee5f
:0401b000000000004b
:0401b100000000004a
:0401b2000000000049
:0401b3000000000048
:0401b4000000000047
:0401b5000000000046
:0401b6000000000045
:0401b7000000000044
:0401b80000000082c1
:0401b90000000361de
:0401ba00000006f14a
:0401bb0001ffff88b9
:0401bc0001ffdb9aca
:0401bd0001ff9b2f74
:0401be0001ff6c30a1
:0401bf0000000f3cf1
:0401c00001fe49995a
:0401c10001ff3e9567
:0401c20001ffbf84f6
:0401c300000000ea4e
:0401c40000000fb474
:0401c500000008f23c
:0401c600000002052e
:0401c7000000000034
:0401c8000000000033
:0401c9000000000032
:0401ca000000000031
:0401cb000000000030
:0401cc00000000002f
:0401cd00000000002e
:0401ce00000000002d
:0401cf00000000002c
:0401d0000000006ebd
:0401d1000000034cdb
:0401d2000000079f83
:0401d30000000250d6
:0401d40001ffe057f0
:0401d50001ff9ccdbd
:0401d60001ff5d7850
:0401d70001ffb7016c
:0401d80001fe71e8cb
:0401d90001ff3cd412
:0401da0001ffb7402a
:0401db0001fffb64c1
:0401dc0000000e020f
:0401dd000000090d08
:0401de000000024dce
:0401df00000000001c
:00000001FF
