:020000000000fe
:020001003d7848
:020002000543b4
:0200030002bb3e
:0200040037ac17
:020005003524a0
:020006003cefcd
:020007003a6756
:020008000000f6
:020009003d4a6e
:02000a0005e10e
:02000b00032bc5
:02000c003610ac
:02000d00335a64
:02000e003bf1c4
:02000f00393b7b
:020010000000ee
:020011003d2888
:02001200066a7c
:02001300039256
:02001400348f27
:0200150031b701
:020016003af9b5
:0200170038218e
:020018000000e6
:020019003d1494
:02001a0006d905
:02001b0003edf3
:02001c0033337c
:02001d0030476a
:02001e003a0c9a
:02001f00372088
:020020000000de
:020021003d0f91
:020022000729ac
:0200230004389f
:020024003207a1
:020025002f1694
:0200260039306f
:02002700363f62
:020028000000d6
:020029003d1c7c
:02002a00075677
:02002b0004725d
:02002c0031148d
:02002d002e3073
:02002e00386a2e
:02002f00358614
:020030000000ce
:020031003d3b55
:02003200075d68
:0200330004982f
:02003400306436
:020035002d9ffd
:0200360037c1d0
:0200370034fc97
:020038000000c6
:020039003d6e1a
:02003a00073a83
:02003b0004a817
:02003c002fff94
:02003d002d6d27
:02003e00373950
:02003f0034a7e4
:020040000000be
:020041003db4cc
:0200420006ebcb
:02004300049f18
:020044002fed9e
:020045002da1eb
:0200460036d8aa
:02004700348cf7
:020048000000b6
:020049003e0f68
:02004a00066f3f
:02004b00047e31
:02004c0030334f
:02004d002e4241
:02004e0036a2d8
:02004f0034b1ca
:020050000000ae
:020051003e7df2
:0200520005c4e3
:02005300044166
:0200540030d6a4
:020055002f5327
:02005600369ad8
:0200570035175b
:020058000000a6
:020059003efe69
:02005a0004ecb4
:02005b0003eab6
:02005c0031d998
:02005d0030d79a
:02005e0036c5a5
:02005f0035c3a7
:0200600000009e
:020061003f91cd
:0200620003e7b2
:02006300037820
:02006400333c2b
:0200650032cd9a
:0200660037233e
:0200670036b4ad
:02006800000096
:02006900003362
:02006a0002b9d9
:02006b0002eca5
:02006c0034fd61
:02006d0035302c
:02006e0037b6a3
:02006f0037e96f
:0200700000008e
:0200710000e2ab
:02007200016427
:02007300024643
:02007400371b38
:0200750037fd55
:02007600387fd1
:020077003961ed
:02007800000086
:02007900019be9
:02007a003fef56
:02007b00018af8
:02007c00398dbc
:02007d003b281e
:02007e00397ccb
:02007f003b172d
:0200800000007e
:02008100025a21
:020082003e5fdf
:0200830000b9c2
:020084003c4df1
:020085003ea794
:020086003aac92
:020087003d0634
:02008800000076
:02008900031c56
:02008a003cbb7d
:02008b003fd75d
:02008c003f51e2
:02008d00026d02
:02008e003c0c28
:02008f003f2808
:0200900000006e
:0200910003db8f
:020092003b0b26
:020093003ee647
:02009400028bdd
:020095000666fd
:020096003d9695
:020097000171f5
:02009800000066
:020099000495cc
:02009a003959d2
:02009b003dee38
:02009c0005ee6f
:02009d000a83d4
:02009e003f47da
:02009f0003dc80
:00000001FF
