:03000000000000fd
:03000100000324d5
:03000200000648ad
:0300030000096c85
:03000400000c905d
:03000500000fb336
:030006000012d510
:030007000015f7ea
:03000800001918c4
:03000900001c37a1
:03000a00001f567e
:03000b000022745c
:03000c000025903c
:03000d000028ab1d
:03000e00002bc400
:03000f00002edce4
:030010000031f1cb
:03001100003505b2
:030012000038179c
:03001300003b2689
:03001400003e3477
:0300150000413f68
:030016000044475c
:0300170000474d52
:03001800004a504b
:03001900004d5047
:03001a0000504d46
:03001b0000534748
:03001c0000563e4d
:03001d0000593255
:03001e00005c2261
:03001f00005f0e71
:030020000061f785
:030021000064dc9c
:030022000067bdb7
:03002300006a9bd5
:03002400006d74f8
:030025000070491f
:030026000073194b
:030027000075e57c
:030028000078adb0
:03002900007b70e9
:03002a00007e2e27
:03002b000080e76b
:03002c0000839cb2
:03002d0000864bff
:03002e000088f552
:03002f00008b9aa9
:03003000008e3906
:030031000090d369
:03003200009368d0
:030033000095f63f
:0300340000987fb2
:03003500009b022b
:03003600009d7fab
:03003700009ff631
:0300380000a267bc
:0300390000a4d24e
:03003a0000a736e6
:03003b0000a99386
:03003c0000abeb2b
:03003d0000ae3bd7
:03003e0000b0858a
:03003f0000b2c844
:0300400000b50404
:0300410000b739cc
:0300420000b9689a
:0300430000bb8e71
:0300440000bdae4e
:0300450000bfc732
:0300460000c1d81e
:0300470000c3e112
:0300480000c5e30d
:0300490000c7de0f
:03004a0000c9d01a
:03004b0000cbbb2c
:03004c0000cd9e46
:03004d0000cf7968
:03004e0000d14c92
:03004f0000d317c4
:0300500000d4daff
:0300510000d69541
:0300520000d8478c
:0300530000d9f2df
:0300540000db933b
:0300550000dd2c9f
:0300560000debd0c
:0300570000e04581
:0300580000e1c5ff
:0300590000e33b86
:03005a0000e4a916
:03005b0000e60fad
:03005c0000e76b4f
:03005d0000e8befa
:03005e0000ea09ac
:03005f0000eb4a69
:0300600000ec822f
:0300610000edb2fd
:0300620000eed8d5
:0300630000eff5b6
:0300640000f108a0
:0300650000f21294
:0300660000f31391
:0300670000f40b97
:0300680000f4f9a8
:0300690000f5dec1
:03006a0000f6b9e4
:03006b0000f78b10
:03006c0000f85346
:03006d0000f91285
:03006e0000f9c7cf
:03006f0000fa7222
:0300700000fb147e
:0300710000fbace5
:0300720000fc3a55
:0300730000fcbfcf
:0300740000fd3a52
:0300750000fdabe0
:0300760000fe1277
:0300770000fe7018
:0300780000fec3c4
:0300790000ff0d78
:03007a0000ff4d37
:03007b0000ff84ff
:03007c0000ffb0d2
:03007d0000ffd3ae
:03007e0000ffeb95
:03007f0000fffa85
:0300800000ffff7f
:0300810000fffa83
:0300820000ffeb91
:0300830000ffd3a8
:0300840000ffb0ca
:0300850000ff84f5
:0300860000ff4d2b
:0300870000ff0d6a
:0300880000fec3b4
:0300890000fe7006
:03008a0000fe1263
:03008b0000fdabca
:03008c0000fd3a3a
:03008d0000fcbfb5
:03008e0000fc3a39
:03008f0000fbacc7
:0300900000fb145e
:0300910000fa7200
:0300920000f9c7ab
:0300930000f9125f
:0300940000f8531e
:0300950000f78be6
:0300960000f6b9b8
:0300970000f5de93
:0300980000f4f978
:0300990000f40b65
:03009a0000f3135d
:03009b0000f2125e
:03009c0000f10868
:03009d0000eff57c
:03009e0000eed899
:03009f0000edb2bf
:0300a00000ec82ef
:0300a10000eb4a27
:0300a20000ea0968
:0300a30000e8beb4
:0300a40000e76b07
:0300a50000e60f63
:0300a60000e4a9ca
:0300a70000e33b38
:0300a80000e1c5af
:0300a90000e0452f
:0300aa0000debdb8
:0300ab0000dd2c49
:0300ac0000db93e3
:0300ad0000d9f285
:0300ae0000d84730
:0300af0000d695e3
:0300b00000d4da9f
:0300b10000d31762
:0300b20000d14c2e
:0300b30000cf7902
:0300b40000cd9ede
:0300b50000cbbbc2
:0300b60000c9d0ae
:0300b70000c7dea1
:0300b80000c5e39d
:0300b90000c3e1a0
:0300ba0000c1d8aa
:0300bb0000bfc7bc
:0300bc0000bdaed6
:0300bd0000bb8ef7
:0300be0000b9681e
:0300bf0000b7394e
:0300c00000b50484
:0300c10000b2c8c2
:0300c20000b08506
:0300c30000ae3b51
:0300c40000abeba3
:0300c50000a993fc
:0300c60000a7365a
:0300c70000a4d2c0
:0300c80000a2672c
:0300c900009ff69f
:0300ca00009d7f17
:0300cb00009b0295
:0300cc0000987f1a
:0300cd000095f6a5
:0300ce0000936834
:0300cf000090d3cb
:0300d000008e3966
:0300d100008b9a07
:0300d2000088f5ae
:0300d30000864b59
:0300d40000839c0a
:0300d5000080e7c1
:0300d600007e2e7b
:0300d700007b703b
:0300d8000078ad00
:0300d9000075e5ca
:0300da0000731997
:0300db0000704969
:0300dc00006d7440
:0300dd00006a9b1b
:0300de000067bdfb
:0300df000064dcde
:0300e0000061f7c5
:0300e100005f0eaf
:0300e200005c229d
:0300e3000059328f
:0300e40000563e85
:0300e5000053477e
:0300e60000504d7a
:0300e700004d5079
:0300e800004a507b
:0300e90000474d80
:0300ea0000444788
:0300eb0000413f92
:0300ec00003e349f
:0300ed00003b26af
:0300ee00003817c0
:0300ef00003505d4
:0300f0000031f1eb
:0300f100002edc02
:0300f200002bc41c
:0300f3000028ab37
:0300f40000259054
:0300f50000227472
:0300f600001f5692
:0300f700001c37b3
:0300f800001918d4
:0300f9000015f7f8
:0300fa000012d51c
:0300fb00000fb340
:0300fc00000c9065
:0300fd0000096c8b
:0300fe00000648b1
:0300ff00000324d7
:03010000000000fc
:0301010001fcdc22
:0301020001f9b848
:0301030001f6946e
:0301040001f37094
:0301050001f04db9
:0301060001ed2bdd
:0301070001ea0901
:0301080001e6e825
:0301090001e3c946
:03010a0001e0aa67
:03010b0001dd8c87
:03010c0001da70a5
:03010d0001d755c2
:03010e0001d43cdd
:03010f0001d124f7
:0301100001ce0f0e
:0301110001cafb25
:0301120001c7e939
:0301130001c4da4a
:0301140001c1cc5a
:0301150001bec167
:0301160001bbb971
:0301170001b8b379
:0301180001b5b07e
:0301190001b2b080
:03011a0001afb37f
:03011b0001acb97b
:03011c0001a9c274
:03011d0001a6ce6a
:03011e0001a3de5c
:03011f0001a0f24a
:03012000019e0934
:03012100019b241b
:03012200019843fe
:03012300019565de
:0301240001928cb9
:03012500018fb790
:03012600018ce762
:03012700018a1b2f
:03012800018753f9
:03012900018490be
:03012a000181d27e
:03012b00017f1938
:03012c00017c64ef
:03012d000179b5a0
:03012e0001770b4b
:03012f00017466f2
:030130000171c793
:03013100016f2d2e
:03013200016c98c5
:03013300016a0a54
:03013400016781df
:030135000164fe64
:03013600016281e2
:0301370001600a5a
:03013800015d99cd
:03013900015b2e39
:03013a000158ca9f
:03013b0001566dfd
:03013c0001541556
:03013d000151c5a8
:03013e00014f7bf3
:03013f00014d3837
:03014000014afc75
:030141000148c7ab
:03014200014698db
:0301430001447202
:0301440001425223
:030145000140393d
:03014600013e284f
:03014700013c1f59
:03014800013a1d5c
:0301490001382258
:03014a000136304b
:03014b0001344537
:03014c000132621b
:03014d00013087f7
:03014e00012eb4cb
:03014f00012ce997
:03015000012b265a
:0301510001296b16
:030152000127b9c9
:0301530001260e74
:0301540001246d16
:030155000122d4b0
:0301560001214341
:03015700011fbbca
:03015800011e3b4a
:03015900011cc5c1
:03015a00011b572f
:03015b000119f196
:03015c00011895f2
:03015d0001174245
:03015e000115f791
:03015f000114b6d2
:0301600001137e0a
:0301610001124e3a
:0301620001112860
:0301630001100b7d
:03016400010ef891
:03016500010dee9b
:03016600010ced9c
:03016700010bf594
:03016800010b0781
:03016900010a2266
:03016a0001094741
:03016b0001087513
:03016c000107addb
:03016d000106ee9a
:03016e000106394e
:03016f0001058ef9
:030170000104ec9b
:0301710001045432
:030172000103c6c0
:0301730001034144
:030174000102c6bf
:030175000102552f
:030176000101ee96
:03017700010190f3
:0301780001013d45
:030179000100f38f
:03017a000100b3ce
:03017b0001007c04
:03017c000100502f
:03017d0001002d51
:03017e0001001568
:03017f0001000676
:030180000100017a
:0301810001000674
:0301820001001564
:0301830001002d4b
:0301840001005027
:0301850001007cfa
:030186000100b3c2
:030187000100f381
:0301880001013d35
:03018900010190e1
:03018a000101ee82
:03018b0001025519
:03018c000102c6a7
:03018d000103412a
:03018e000103c6a4
:03018f0001045414
:030190000104ec7b
:0301910001058ed7
:030192000106392a
:030193000106ee74
:030194000107adb3
:03019500010875e9
:0301960001094715
:03019700010a2238
:03019800010b0751
:03019900010bf562
:03019a00010ced68
:03019b00010dee65
:03019c00010ef859
:03019d0001100b43
:03019e0001112824
:03019f0001124efc
:0301a00001137eca
:0301a1000114b690
:0301a2000115f74d
:0301a300011742ff
:0301a400011895aa
:0301a5000119f14c
:0301a600011b57e3
:0301a700011cc573
:0301a800011e3bfa
:0301a900011fbb78
:0301aa00012143ed
:0301ab000122d45a
:0301ac0001246dbe
:0301ad0001260e1a
:0301ae000127b96d
:0301af0001296bb8
:0301b000012b26fa
:0301b100012ce935
:0301b200012eb467
:0301b30001308791
:0301b400013262b3
:0301b500013445cd
:0301b600013630df
:0301b700013822ea
:0301b800013a1dec
:0301b900013c1fe7
:0301ba00013e28db
:0301bb00014039c7
:0301bc00014252ab
:0301bd0001447288
:0301be000146985f
:0301bf000148c72d
:0301c000014afcf5
:0301c100014d38b5
:0301c200014f7b6f
:0301c3000151c522
:0301c400015415ce
:0301c50001566d73
:0301c6000158ca13
:0301c700015b2eab
:0301c800015d993d
:0301c90001600ac8
:0301ca000162814e
:0301cb000164fece
:0301cc0001678147
:0301cd00016a0aba
:0301ce00016c9829
:0301cf00016f2d90
:0301d0000171c7f3
:0301d10001746650
:0301d20001770ba7
:0301d3000179b5fa
:0301d400017c6447
:0301d500017f198e
:0301d6000181d2d2
:0301d70001849010
:0301d80001875349
:0301d900018a1b7d
:0301da00018ce7ae
:0301db00018fb7da
:0301dc0001928c01
:0301dd0001956524
:0301de0001984342
:0301df00019b245d
:0301e000019e0974
:0301e10001a0f288
:0301e20001a3de98
:0301e30001a6cea4
:0301e40001a9c2ac
:0301e50001acb9b1
:0301e60001afb3b3
:0301e70001b2b0b2
:0301e80001b5b0ae
:0301e90001b8b3a7
:0301ea0001bbb99d
:0301eb0001bec191
:0301ec0001c1cc82
:0301ed0001c4da70
:0301ee0001c7e95d
:0301ef0001cafb47
:0301f00001ce0f2e
:0301f10001d12415
:0301f20001d43cf9
:0301f30001d755dc
:0301f40001da70bd
:0301f50001dd8c9d
:0301f60001e0aa7b
:0301f70001e3c958
:0301f80001e6e835
:0301f90001ea090f
:0301fa0001ed2be9
:0301fb0001f04dc3
:0301fc0001f3709c
:0301fd0001f69474
:0301fe0001f9b84c
:0301ff0001fcdc24
:00000001FF
