:0100000000ff
:010001001ce2
:0100020000fd
:010003001ce0
:0100040000fb
:010005001cde
:0100060000f9
:010007001cdc
:0100080000f7
:010009001cda
:01000a0000f5
:01000b001cd8
:01000c0000f3
:01000d001cd6
:01000e0000f1
:01000f001cd4
:0100100000ef
:010011001cd2
:0100120000ed
:010013001cd0
:0100140000eb
:010015001cce
:0100160000e9
:010017001ccc
:0100180000e7
:010019001cca
:01001a0000e5
:01001b001cc8
:01001c0000e3
:01001d001cc6
:01001e0000e1
:01001f001cc4
:0100200000df
:0100210024ba
:0100220000dd
:0100230024b8
:0100240000db
:0100250024b6
:0100260000d9
:0100270024b4
:0100280000d7
:0100290024b2
:01002a0000d5
:01002b0024b0
:01002c0000d3
:01002d0024ae
:01002e0000d1
:01002f0024ac
:0100300000cf
:0100310024aa
:0100320000cd
:0100330024a8
:0100340000cb
:0100350024a6
:0100360000c9
:0100370024a4
:0100380000c7
:0100390024a2
:01003a0000c5
:01003b0024a0
:01003c0000c3
:01003d00249e
:01003e0000c1
:01003f00249c
:0100400000bf
:010041002995
:010042006a53
:0100430013a9
:0100440000bb
:010045002991
:010046006a4f
:0100470013a5
:0100480000b7
:01004900298d
:01004a006a4b
:01004b0013a1
:01004c0000b3
:01004d002989
:01004e006a47
:01004f00139d
:0100500000af
:010051002985
:010052006a43
:010053001399
:0100540000ab
:010055002981
:010056006a3f
:010057001395
:0100580000a7
:01005900297d
:01005a006a3b
:01005b001391
:01005c0000a3
:01005d002979
:01005e006a37
:01005f00138d
:01006000009f
:010061002a74
:010062006637
:01006300108c
:01006400009b
:010065002a70
:010066006633
:010067001088
:010068000097
:010069002a6c
:01006a00662f
:01006b001084
:01006c000093
:01006d002a68
:01006e00662b
:01006f001080
:01007000008f
:010071002a64
:010072006627
:01007300107c
:01007400008b
:010075002a60
:010076006623
:010077001078
:010078000087
:010079002a5c
:01007a00661f
:01007b001074
:01007c000083
:01007d002a58
:01007e00661b
:01007f001070
:01008000007f
:010081002955
:010082006518
:010083000e6e
:01008400007b
:010085002951
:010086006514
:010087000e6a
:010088000077
:01008900294d
:01008a006510
:01008b000e66
:01008c000073
:01008d002949
:01008e00650c
:01008f000e62
:01009000006f
:010091002945
:010092006508
:010093000e5e
:01009400006b
:010095002941
:010096006504
:010097000e5a
:010098000067
:01009900293d
:01009a006500
:01009b000e56
:01009c000063
:01009d002939
:01009e0065fc
:01009f000e52
:0100a000005f
:0100a100243a
:0100a20065f8
:0100a3000953
:0100a400005b
:0100a5002436
:0100a60065f4
:0100a700094f
:0100a8000057
:0100a9002432
:0100aa0065f0
:0100ab00094b
:0100ac000053
:0100ad00242e
:0100ae0065ec
:0100af000947
:0100b000004f
:0100b100242a
:0100b20065e8
:0100b3000943
:0100b400004b
:0100b5002426
:0100b60065e4
:0100b700093f
:0100b8000047
:0100b9002422
:0100ba0065e0
:0100bb00093b
:0100bc000043
:0100bd00241e
:0100be0065dc
:0100bf000937
:0100c000003f
:0100c1001d21
:0100c20068d5
:0100c3000537
:0100c400003b
:0100c5001d1d
:0100c60068d1
:0100c7000533
:0100c8000037
:0100c9001d19
:0100ca0068cd
:0100cb00052f
:0100cc000033
:0100cd001d15
:0100ce0068c9
:0100cf00052b
:0100d000002f
:0100d1001d11
:0100d20068c5
:0100d3000527
:0100d400002b
:0100d5001d0d
:0100d60068c1
:0100d7000523
:0100d8000027
:0100d9001d09
:0100da0068bd
:0100db00051f
:0100dc000023
:0100dd001d05
:0100de0068b9
:0100df00051b
:0100e000001f
:0100e100140a
:0100e2006cb1
:0100e300001c
:0100e400001b
:0100e5001406
:0100e6006cad
:0100e7000018
:0100e8000017
:0100e9001402
:0100ea006ca9
:0100eb000014
:0100ec000013
:0100ed0014fe
:0100ee006ca5
:0100ef000010
:0100f000000f
:0100f10014fa
:0100f2006ca1
:0100f300000c
:0100f400000b
:0100f50014f6
:0100f6006c9d
:0100f7000008
:0100f8000007
:0100f90014f2
:0100fa006c99
:0100fb000004
:0100fc000003
:0100fd0014ee
:0100fe006c95
:0100ff000000
:0101000000fe
:0101010000fd
:0101020000fc
:0101030000fb
:0101040000fa
:0101050000f9
:0101060000f8
:0101070000f7
:0101080000f6
:0101090000f5
:01010a0000f4
:01010b0000f3
:01010c0000f2
:01010d0000f1
:01010e0000f0
:01010f0000ef
:0101100000ee
:0101110000ed
:0101120000ec
:0101130000eb
:0101140000ea
:0101150000e9
:0101160000e8
:0101170000e7
:0101180000e6
:0101190000e5
:01011a0000e4
:01011b0000e3
:01011c0000e2
:01011d0000e1
:01011e0000e0
:01011f0000df
:0101200000de
:0101210000dd
:0101220000dc
:0101230000db
:0101240000da
:0101250000d9
:0101260000d8
:0101270000d7
:0101280000d6
:0101290000d5
:01012a0000d4
:01012b0000d3
:01012c0000d2
:01012d0000d1
:01012e0000d0
:01012f0000cf
:0101300000ce
:0101310000cd
:0101320000cc
:0101330000cb
:0101340000ca
:0101350000c9
:0101360000c8
:0101370000c7
:0101380000c6
:0101390000c5
:01013a0000c4
:01013b0000c3
:01013c0000c2
:01013d0000c1
:01013e0000c0
:01013f0000bf
:00000001FF
