:020000000000fe
:02000100007984
:02000200019467
:02000300000dee
:020004000053a7
:0200050000cc2d
:0200060001e710
:02000700006097
:0200080001ca2b
:020009000043b2
:02000a00015e95
:02000b0001d71b
:02000c00001dd5
:02000d0000965b
:02000e0001b13e
:02000f00002ac5
:020010000000ee
:0200110000608d
:02001200019e4d
:0200130001feec
:02001400005397
:0200150000b336
:0200160001f1f6
:02001700005196
:0200180001c421
:020019000024c1
:02001a00016281
:02001b0001c220
:02001c000017cb
:02001d0000776a
:02001e0001b52a
:02001f000015ca
:020020000000de
:0200210000419c
:0200220001b02b
:0200230001f1e9
:02002400004d8d
:02002500008e4b
:0200260001fdda
:02002700003e99
:0200280001c312
:020029000004d1
:02002a00017360
:02002b0001b41e
:02002c000010c2
:02002d00005180
:02002e0001c00f
:02002f000001ce
:020030000000ce
:02003100001eaf
:0200320001c704
:0200330001e5e5
:02003400004189
:02003500005f6a
:020036000008c0
:020037000026a1
:0200380001c7fe
:0200390001e5df
:02003a00018e35
:02003b0001ac16
:02003c000008ba
:02003d0000269b
:02003e0001cff0
:02003f0001edd1
:020040000000be
:020041000000bd
:0200420001e1da
:0200430001e1d9
:0200440000308a
:02004500003089
:020046000011a7
:020047000011a6
:0200480001cfe6
:0200490001cfe5
:02004a0001b003
:02004b0001b002
:02004c0001ffb2
:02004d0001ffb1
:02004e0001e0cf
:02004f0001e0ce
:020050000000ae
:0200510001d9d3
:020052000000ac
:0200530001d9d1
:02005400001d8d
:0200550001f6b2
:02005600001d8b
:0200570001f6b0
:0200580001dacb
:0200590001b3f1
:02005a0001dac9
:02005b0001b3ef
:02005c0001f7aa
:02005d0001d0d0
:02005e0001f7a8
:02005f0001d0ce
:0200600000009e
:0200610001bddf
:02006200001686
:0200630001d3c7
:0200640000009a
:0200650001bddb
:02006600001682
:0200670001d3c3
:0200680001e7ae
:0200690001a4f0
:02006a0001fd96
:02006b0001bad8
:02006c0001e7aa
:02006d0001a4ec
:02006e0001fd92
:02006f0001bad4
:0200700000008e
:0200710001a6e6
:02007200002d5f
:0200730001d3b7
:0200740000008a
:0200750001a6e2
:02007600002d5b
:0200770001d3b3
:02007800000086
:0200790001a6de
:02007a00002d57
:02007b0001d3af
:02007c00000082
:02007d0001a6da
:02007e00002d53
:02007f0001d3ab
:0200800000007e
:020081000197e5
:0200820000403c
:0200830001d7a3
:0200840001e495
:02008500017bfd
:02008600002454
:0200870001bbbb
:02008800000076
:020089000197dd
:02008a00004034
:02008b0001d79b
:02008c0001e48d
:02008d00017bf5
:02008e0000244c
:02008f0001bbb3
:0200900000006e
:020091000191db
:02009200004d1f
:0200930001de8c
:0200940001d594
:02009500016602
:02009600002246
:0200970001b3b3
:02009800000066
:020099000191d3
:02009a00004d17
:02009b0001de84
:02009c0001d58c
:02009d000166fa
:02009e0000223e
:02009f0001b3ab
:00000001FF
