:03000000000000fd
:03000100000000fc
:03000200000000fb
:03000300000000fa
:030004003fff8f2c
:030005003fffdfdb
:030006000005d121
:030007003ffe4079
:030008003fe621af
:03000900000ff3f2
:03000a00004ffaaa
:03000b003fb04eb5
:03000c003eef2e96
:03000d000649762b
:03000e003eb412eb
:03000f00009df75a
:0300100000384f66
:030011003fca03e0
:030012003ff46b4d
:0300130000106674
:03001400000145a3
:030015003ffcf7b6
:03001600000000e7
:03001700000000e6
:03001800000000e5
:03001900000000e4
:03001a00000000e3
:03001b00000000e2
:03001c003fff9d06
:03001d003fff5052
:03001e0000058951
:03001f000001fae3
:030020003fe5cfea
:0300210000022cae
:030022000055fe88
:030023003fda9d24
:030024003ec8f3e0
:03002500039a2318
:030026003e52b196
:030027000077510e
:0300280000507c09
:030029003fd31fa3
:03002a003febf2b7
:03002b00000eb80c
:03002c000003725c
:03002d003ffd157f
:03002e003fffcac7
:03002f00000000ce
:03003000000000cd
:03003100000000cc
:03003200000000cb
:03003300000000ca
:030034003fffb2d9
:030035003ffed6b5
:030036000004d4ef
:0300370000056f52
:030038003fe7940b
:030039003ff48b06
:03003a000055046a
:03003b000006d8e4
:03003c003ebcbc0b
:03003d00012ad6bf
:03003e003e0fa6cc
:03003f000045d3a6
:030040000062aab1
:030041003fe01b82
:030042003fe4e6b2
:03004300000bc9e6
:0300440000056a4a
:030045003ffd720a
:030046003fff8ced
:03004700000000b6
:03004800000000b5
:03004900000000b4
:03004a00000000b3
:03004b00000000b2
:03004c003fffcba8
:03004d003ffe79fa
:03004e000003c3e9
:03004f0000085b4b
:030050003feb4043
:030051003fe8275e
:03005200004d4a14
:0300530000317009
:030054003eca8d14
:030055003f12490e
:030056003df20d6b
:03005700000d3960
:03005800006d3afe
:030059003ff00075
:03005a003fdfe4a1
:03005b000007cecd
:03005c0000070199
:03005d003ffe095a
:03005e003fff550c
:03005f000000009e
:030060000000009d
:030061000000009c
:030062000000009b
:030063000000009a
:030064003fffe675
:030065003ffe401b
:0300660000026f26
:03006700000a8606
:030068003ff07beb
:030069003fddf385
:03006a00003f93c1
:03006b0000570b30
:03006c003ef05f04
:03006d003d61876b
:03006e003dfe60f4
:03006f003fd1ed91
:03007000006f20fe
:03007100000192f9
:030072003fdd610e
:0300730000031275
:030074000008136e
:030075003ffed07b
:030076003fff2821
:0300770000000086
:0300780000000085
:0300790000000084
:03007a0000000083
:03007b0000000082
:03007c0000000081
:03007d003ffe2d16
:03007e000000f689
:03007f00000bcba8
:030080003ff6d078
:030081003fd6b4b3
:03008200002d1a34
:030083000074cc3a
:030084003f2a5eb2
:030085003c2330e9
:030086003e35fe06
:030087003f98b1ee
:030088000068020b
:0300890000136cf5
:03008a003fdda2b5
:03008b003ffdf343
:03008c00000884e5
:03008d003fffb979
:03008e003fff0b26
:03008f000000006e
:030090000000006d
:030091000000006c
:030092000000006b
:030093000000006a
:0300940000001a4f
:030095003ffe40eb
:030096003fff78b1
:03009700000c1644
:030098003ffdb673
:030099003fd2eb68
:03009a00001774d8
:03009b0000888555
:03009c003f73446b
:03009d003b5b28a2
:03009e003e96e1aa
:03009f003f663f7a
:0300a00000583dc8
:0300a10000241b1d
:0300a2003fe0b488
:0300a3003ff8da49
:0300a4000008460b
:0300a5000000b1a7
:0300a6003fff0118
:0300a70000000056
:0300a80000000055
:0300a90000000054
:0300aa0000000053
:0300ab0000000052
:0300ac0000002e23
:0300ad003ffe769d
:0300ae003ffe1200
:0300af00000b68db
:0300b00000049dac
:0300b1003fd2d269
:0300b20000006cdf
:0300b3000090e4d6
:0300b4003fc4ce78
:0300b5003b06b354
:0300b6003f1b9855
:0300b7003f3ee9e0
:0300b8000040e61f
:0300b90000323dd5
:0300ba003fe668b6
:0300bb003ff432dd
:0300bc00000757e3
:0300bd000001a699
:0300be003fff0bf6
:0300bf000000003e
:0300c0000000003d
:0300c1000000003c
:0300c2000000003b
:0300c3000000003a
:0300c40000003dfc
:0300c5003ffec833
:0300c6003ffce01c
:0300c7000009d855
:0300c800000af833
:0300c9003fd653cc
:0300ca003fe9e229
:0300cb00008d861f
:0300cc00001843d6
:0300cd003b1cebee
:0300ce003fbb84b1
:0300cf003f263693
:0300d0000023b654
:0300d100003c9957
:0300d2003fee58a6
:0300d3003ff05f9c
:0300d4000005c75d
:0300d500000282a4
:0300d6003fff2bbe
:0300d70000000026
:0300d80000000025
:0300d90000000024
:0300da0000000023
:0300db0000000022
:0300dc00000046db
:0300dd003fff2fb3
:0300de003ffbfaeb
:0300df0000078b8c
:0300e000001048c5
:0300e1003fdd12ee
:0300e2003fd59e69
:0300e300007ef7a5
:0300e4000066fdb6
:0300e5003b8f9db1
:0300e600006b5458
:0300e7003f1e9920
:0300e8000002ea29
:0300e90000424290
:0300ea003ff7ecf1
:0300eb003fedb92d
:0300ec000003af5f
:0300ed00000332db
:0300ee003fff5f72
:0300ef003fffe8e8
:00000001FF
