:0400000000000000fc
:0400010001c93c7481
:04000200002fe307e1
:0400030001f91f7b65
:0400040001e0897e10
:0400050001a9c5f296
:0400060000106c85f5
:0400070001d9a8f97a
:0400080000000000f4
:0400090001c3de1140
:04000a00003be59f33
:04000b0001ffc3b07e
:04000c0001cdfb0b1c
:04000d000191d91c68
:04000e000009e0aa5b
:04000f0001cdbebba6
:0400100000000000ec
:0400110001c30c5ac1
:0400120000438a9a83
:04001300000696f459
:0400140001bed8d978
:040015000181e5334d
:04001600000263730e
:0400170001c56fcde3
:0400180000000000e4
:0400190001c6f3c564
:04001a0000461e730b
:04001b00000d12388a
:04001c0001b4666461
:04001d00017b5a29e0
:04001e0001fa84d788
:04001f0001c1789c07
:0400200000000000dc
:0400210001cf638028
:0400220000434dde6c
:040023000012b15eb8
:0400240001af925442
:04002500017ef5d48f
:0400260001f2e032d1
:0400270001c243b21d
:0400280000000000d4
:0400290001dbcf9f89
:04002a00003b2eaabf
:04002b000016fe4974
:04002c0001b0e19f9f
:04002d00018cb13e53
:04002e0001ec104988
:04002f0001c7dfe83e
:0400300000000000cc
:0400310001eb598df9
:04003200002e40db81
:0400330000199a68ae
:0400340001b862c8e5
:0400350001a3bc5512
:0400360001e6a3a399
:0400370001d1fd30c6
:0400380000000000c4
:0400390001fcdf4c9b
:04003a00001d670e30
:04003b00001a465a07
:04003c0001c5a96de4
:04003d0001c288b9bb
:04003e0001e3107b4f
:04003f0001dfefc727
:0400400000000000bc
:04004100000f106e2e
:040042000009d78f4b
:040043000018e7fdbd
:0400440001d7d3d13c
:0400450001e6e43fad
:0400460001e1ab60c9
:0400470001f0bbce3b
:0400480000000000b4
:0400490000208710fc
:04004a0001f5064b6b
:04004b0000158d5bb4
:04004c0001ed991118
:04004d00000e202160
:04004e0001e29f5cd0
:04004f000003266c18
:00000001FF
