:03000000000000fd
:030001001fffd509
:0300020000009665
:030003001fffe5f7
:030004001ffd5f7e
:03000500000532c1
:030006001fff8e4b
:030007001ff1cf17
:0300080000180ecf
:030009001fff1abc
:03000a001fb4a17f
:03000b00011807d2
:03000c001ffef3e1
:03000d000041c5ea
:03000e001fdcd71d
:03000f001fff458b
:03001000000d6b75
:030011001ff85a7b
:030012001fffb815
:0300130000027870
:030014001ffee8e4
:030015001ffff5d5
:03001600000023c4
:03001700000000e6
:03001800000000e5
:030019001fffcef8
:03001a0000005c87
:03001b000000aa38
:03001c001ffce8de
:03001d00000322bb
:03001e0000049843
:03001f001fef7858
:03002000000e29a6
:030021000015d4f3
:030022001faa18fa
:030023000098b58d
:030024001f8f61ca
:03002500004cbece
:030026001febefde
:030027001ff2d4f1
:03002800000f5a6c
:030029001ffbc5f5
:03002a001ffd2196
:03002b000002cd03
:03002c001fff694a
:03002d001fffb101
:03002e00000028a7
:03002f00000000ce
:03003000000000cd
:030031001fffd4da
:0300320000000cbf
:0300330000013c8d
:030034001ffd4667
:0300350000004d7b
:0300360000084a75
:030037001ff19026
:030038000000c203
:0300390000262d71
:03003a001fb68965
:03003b00000110b1
:03003c001f350766
:03003d0000432f4e
:03003e000000e3dc
:03003f001fe9a610
:03004000000d2c84
:0300410000006d4f
:030042001ffb3d64
:0300430000026157
:03004400000019a0
:030045001fff7f1b
:0300460000002295
:03004700000000b6
:03004800000004b1
:030049001fffe5b1
:03004a001fffbdd8
:03004b000001743d
:03004c001ffe583c
:03004d001ffd791b
:03004e000009b2f4
:03004f001ff76d2b
:030050001ff37c1f
:03005100002bfd84
:030052001fd5cfe8
:030053001f7949c9
:030054001f0aeb95
:030055000026f191
:0300560000162d64
:030057001fe64e53
:0300580000075d41
:0300590000051887
:03005a001ffa97f3
:03005b0000014b56
:03005c000000c9d8
:03005d001fff6d15
:03005e000000128d
:03005f000000009e
:030060000000009d
:030061000000009c
:030062001fff84f9
:0300630000014950
:030064001fffd2a9
:030065001ffb641a
:030066000008810e
:030067001fff6a0e
:030068001fe9d8b5
:0300690000260767
:03006a001fff0174
:03006b001f2182d0
:03006c001f2182cf
:03006d001fff0171
:03006e0000260762
:03006f001fe9d8ae
:030070001fff6a05
:0300710000088103
:030072001ffb640d
:030073001fffd29a
:030074000001493f
:030075001fff84e6
:0300760000000087
:0300770000000086
:00000001FF
