:03000000000044b9
:030001001fffd806
:030002001ffc568a
:030003000000f604
:03000400000febff
:030005001ffc9f3e
:030006001fcf57b2
:0300070000097776
:0300080000830171
:030009001fe53cb4
:03000a001e182d90
:03000b000986a9ba
:03000c001dfdb621
:03000d00001ba92c
:03000e0000865f0a
:03000f001ff64d8c
:030010001fce17e9
:0300110000037f6a
:0300120000106b70
:030013001fff01cb
:030014001ffc2ca2
:0300150000002bbd
:0300160000004c9b
:03001700000000e6
:0300180000003fa6
:030019001fffb313
:03001a001ffc7e4a
:03001b000001e100
:03001c00000f587a
:03001d001ff95f69
:03001e001fd0f5fb
:03001f000012923a
:03002000007eaab5
:030021001fcb9d55
:030022001e2e6728
:030023000975a2ba
:030024001dfa7949
:030025000037c5dc
:0300260000854210
:030027001fec804b
:030028001fce8266
:03002900000707c6
:03002a000010546f
:03002b001ffdfbbb
:03002c001ffc2c8a
:03002d0000005779
:03002e0000004f80
:03002f00000000ce
:0300300000003a93
:030031001fff921c
:030032001ffcb1ff
:030033000002bc0c
:03003400000e9328
:030035001ff64e65
:030036001fd330a5
:03003700001b3378
:030038000078ae9f
:030039001fb37a78
:03003a001e49e07c
:03003b00095968f8
:03003c001dfe7e28
:03003d000053fa73
:03003e0000823a03
:03003f001fe2bc01
:030040001fcfa42b
:03004100000a8f23
:03004200000fffad
:030043001ffcf4ab
:030044001ffc3965
:0300450000008533
:0300460000005067
:03004700000000b6
:0300480000003382
:030049001fff7422
:03004a001ffcedab
:03004b000003852a
:03004c00000da004
:03004d001ff37529
:03004e001fd5fbc0
:03004f0000233e4d
:0300500000712e0e
:030051001f9d1cd4
:030052001e69fd27
:0300530009323936
:030054001e0a2061
:03005500006fe554
:03005600007d45e5
:030057001fd9248a
:030058001fd17d38
:03005900000e0a8c
:03005a00000f6e26
:03005b001ffbef99
:03005c001ffc5630
:03005d000000b3ed
:03005e000000504f
:03005f000000009e
:0300600000002d70
:030061001fff5925
:030062001ffd324d
:0300630000043b5b
:03006400000c8409
:030065001ff0dcad
:030066001fd94956
:03006700002a9bd1
:0300680000684de0
:030069001f88c32a
:03006a001e8e1fc8
:03006b0009006b1e
:03006c001e1dada9
:03006d00008b1fe6
:03006e00007669b0
:03006f001fcfdcc4
:030070001fd40c8e
:0300710000116912
:03007200000e9fde
:030073001ffaef82
:030074001ffc82ec
:030075000000e1a7
:0300760000004e39
:0300770000000086
:030078000000275e
:030079001fff4323
:03007a001ffd7ee9
:03007b000004dba3
:03007c00000b4531
:03007d001fee8ce7
:03007e001fdd0c77
:03007f000031331a
:03008000005e33ec
:030081001f76a641
:030082001eb59f09
:0300830008c46846
:030084001e3960c2
:0300850000a54291
:03008600006db258
:030087001fc70987
:030088001fd74c33
:030089000014a2be
:03008a00000d93d3
:03008b001ff9f961
:03008c001ffcbd99
:03008d0000010f60
:03008e0000004b24
:03008f000000006e
:030090000000204d
:030091001fff311d
:030092001ffdd07f
:0300930000056302
:030094000009e779
:030095001fec8ad3
:030096001fe13235
:030097000036f43c
:0300980000530c06
:030099001f66f5ea
:03009a001edfd393
:03009b00087eb22a
:03009c001e5d6086
:03009d0000bde9ba
:03009e00006332ca
:03009f001fbecdb4
:0300a0001fdb352e
:0300a1000017a5a0
:0300a200000c4e01
:0300a3001ff91131
:0300a4001ffd0736
:0300a50000013b1c
:0300a60000004611
:0300a70000000056
:0300a80000001a3b
:0300a9001fff2313
:0300aa001ffe2610
:0300ab000005d37a
:0300ac00000870d9
:0300ad001feadc6b
:0300ae001fe5aba0
:0300af00003bce45
:0300b00000470600
:0300b1001f59d301
:0300b2001f0c130d
:0300b300082fdc37
:0300b4001e89c0e2
:0300b50000d4adc7
:0300b600005704ec
:0300b7001fb74927
:0300b8001fdfbd8a
:0300b900001a68c2
:0300ba00000ad168
:0300bb001ff83af1
:0300bc001ffd5fc6
:0300bd00000164db
:0300be00000040ff
:0300bf000000003e
:0300c00000001429
:0300c1001fff1a04
:0300c2001ffe7f9f
:0300c30000062b09
:0300c4000006e84b
:0300c5001fe985ab
:0300c6001fea64ca
:0300c700003fb740
:0300c800003a50ab
:0300c9001f4f5b6b
:0300ca001f39b526
:0300cb0007d88fc4
:0300cc001ebe80d5
:0300cd0000e92f18
:0300ce000049489e
:0300cf001fb09ec1
:0300d0001fe4d951
:0300d100001cdd33
:0300d20000092101
:0300d3001ff7789c
:0300d4001ffdc548
:0300d50000018b9c
:0300d600000038ef
:0300d70000000026
:0300d80000000025
:0300d9001fff14f2
:0300da001ffeda2c
:0300db00000669b3
:0300dc00000553c9
:0300dd001fe88792
:0300de001fef4bc6
:0300df000042a537
:0300e000002d1cd4
:0300e1001f479f17
:0300e2001f681282
:0300e30007798713
:0300e4001efb8a76
:0300e50000fb120b
:0300e600003a26b7
:0300e7001faae964
:0300e8001fea7894
:0300e900001efbfb
:0300ea00000742ca
:0300eb001ff6cf2e
:0300ec001ffe37bd
:0300ed000001ae61
:0300ee0000002de2
:0300ef000000000e
:0300f0000000000d
:0300f1001fff12dc
:0300f2001fff34b9
:0300f30000068d77
:0300f4000003b84e
:0300f5001fe7e51d
:0300f6001ff44da7
:0300f7000044952d
:0300f800001f9c4a
:0300f9001f42a6fd
:0300fa001f9689c5
:0300fb0007138860
:0300fc001f40b1f1
:0300fd00010a00f5
:0300fe000029ca0c
:0300ff001fa645f4
:030100001ff08b62
:030101000020b625
:0301020000053abb
:030103001ff642a2
:030104001ffeb526
:030105000001cc2a
:03010600000022d4
:03010700000000f5
:03010800000000f4
:030109001fff14c1
:03010a001fff8d47
:03010b0000069952
:03010c0000021cd2
:03010d001fe79d4c
:03010e001ff9587e
:03010f0000458523
:03011000001201d9
:030111001f406d1f
:030112001fc47f88
:0301130006a76bd1
:030114001f8db587
:030115000115aa27
:0301160000186767
:030117001fa2c95b
:030118001ff6fdd2
:03011900002205bc
:03011a0000030fd0
:03011b001ff5d4f9
:03011c001fff3e84
:03011d000001e5f9
:03011e00000014ca
:03011f00000000dd
:03012000000000dc
:030121001fff1aa3
:030122001fffe4d8
:0301230000068c47
:0301240000008751
:030125001fe7ad24
:030126001ffe5a5f
:0301270000457917
:0301280000047b55
:030129001f40e78d
:03012a001ff16062
:03012b0006361085
:03012c001fe2408f
:03012d00011dc9e8
:03012e0000063593
:03012f001fa08985
:030130001ffdb9f7
:030131000022e2c7
:030132000000c703
:030133001ff5882d
:030134001fffcfdb
:030135000001f8ce
:03013600000000c6
:03013700000000c5
:03013800000000c4
:030139001fff2283
:03013a000000378b
:03013b0000066952
:03013c001ffefca7
:03013d001fe814a4
:03013e000003417a
:03013f0000447801
:030140001ff73b6b
:030141001f440157
:03014200001ca1fd
:0301430005c05f95
:03014400003de794
:0301450001222173
:030146001ff36f35
:030147001f9f9661
:030148000004aa06
:030149000023454b
:03014a001ffe6c29
:03014b001ff5603d
:03014c0000006749
:03014d00000204a9
:03014e00000000ae
:03014f00000000ad
:03015000000000ac
:030151001fff2d60
:0301520000008525
:0301530000063073
:030154001ffd820a
:030155001fe8cdd3
:030156000007fba4
:03015700004289da
:030158001fea6c2f
:030159001f499d9e
:03015a000045c39a
:03015b000547490c
:03015c0000a02bd5
:03015d00012280fc
:03015e001fe05649
:03015f001f9ffae5
:03016000000bb6db
:0301610000232b4d
:030162001ffc037c
:030163001ff55e27
:0301640000010394
:030165000002098c
:030166001fffe395
:0301670000000095
:0301680000000094
:030169001fff3b3a
:03016a000000cec4
:03016b000005e2aa
:03016c001ffc1d58
:03016d001fe9d3b4
:03016e00000c7a08
:03016f00003fbb93
:030170001fde3a55
:030171001f519586
:03017200006c50ce
:0301730004cbc4f6
:0301740001087b04
:03017500011ec0a8
:030176001fcd2c6e
:030177001fa1be07
:030178000012c5ad
:0301790000228fd2
:03017a001ff997d3
:03017b001ff584e9
:03017c000001a2dd
:03017d0000020776
:03017e001fffd18f
:03017f000000007d
:030180000000007c
:030181001fff4a13
:0301820000011069
:03018300000583f1
:030184001ffad18e
:030185001feb214c
:030186000010b0b6
:03018700003c1d1c
:030188001fd2ccb7
:030189001f5bbe3b
:03018a00008fe102
:03018b00044ec55a
:03018c00017632c7
:03018d000116c98f
:03018e001fba365f
:03018f001fa4e3c7
:030190000019be95
:03019100002171d9
:030192001ff73024
:030193001ff5d184
:0301940000024224
:030195000001fc6a
:030196001fffbd8b
:0301970000000065
:0301980000000064
:030199001fff5bea
:03019a0000014c15
:03019b0000051349
:03019c001ff9a2a6
:03019d001fecb0a4
:03019e0000148ebc
:03019f000037bf67
:0301a0001fc84530
:0301a1001f67e3f2
:0301a20000b01c8e
:0301a30003d13f46
:0301a40001e89cd3
:0301a500010a8fbd
:0301a6001fa7b8d8
:0301a7001fa96726
:0301a800002085af
:0301a900001fd163
:0301aa001ff4d669
:0301ab001ff647f5
:0301ac000002e06e
:0301ad000001ea64
:0301ae001fffa987
:0301af000000004d
:0301b0000000004c
:0301b1001fff6ebf
:0301b20000017fca
:0301b300000495b0
:0301b4001ff8959c
:0301b5001fee78c2
:0301b60000180925
:0301b7000032b85b
:0301b8001fbec5a2
:0301b9001f75cee1
:0301ba0000ccb4c2
:0301bb00035428c2
:0301bc00025ef6ea
:0301bd0000fa1530
:0301be001f95fa90
:0301bf001faf412e
:0301c00000270312
:0301c100001db26c
:0301c2001ff29495
:0301c3001ff6e53f
:0301c400000379bc
:0301c5000001cf67
:0301c6001fff9583
:0301c70000000035
:0301c80000000034
:0301c9001fff8194
:0301ca000001ab86
:0301cb0000040c21
:0301cc001ff7aa70
:0301cd001ff072ae
:0301ce00001b18fb
:0301cf00002d1ce4
:0301d0001fb667f0
:0301d1001f854047
:0301d20000e56cd9
:0301d30002d86fe0
:0301d40002d86fdf
:0301d50000e56cd6
:0301d6001f854042
:0301d7001fb667e9
:0301d800002d1cdb
:0301d900001b18f0
:0301da001ff072a1
:0301db001ff7aa61
:0301dc0000040c10
:0301dd000001ab73
:0301de001fff817f
:0301df000000001d
:00000001FF
